:020000040000fa
:080000000002040000000000f2
:020000040000fa
:0400080012030000df
:020000040000fa
:04000c0024030000c9
:020000040000fa
:040010003c030000ad
:020000040000fa
:040014001a030000cb
:020000040000fa
:040018002c030000b5
:020000040000fa
:04001c0034030000a9
:020000040000fa
:040020004403000095
:020000040000fa
:040024009c05000037
:020000040000fa
:040028009c05000033
:020000040000fa
:04002c009c0500002f
:020000040000fa
:040030009c0500002b
:020000040000fa
:040034009c05000027
:020000040000fa
:040038009c05000023
:020000040000fa
:04003c009c0500001f
:020000040000fa
:040040009c0500001b
:020000040000fa
:040044009c05000017
:020000040000fa
:040048009c05000013
:020000040000fa
:04004c009c0500000f
:020000040000fa
:040050009c0500000b
:020000040000fa
:040054009c05000007
:020000040000fa
:040058009c05000003
:020000040000fa
:04005c009c050000ff
:020000040000fa
:040060009c050000fb
:020000040000fa
:040064009c050000f7
:020000040000fa
:040068009c050000f3
:020000040000fa
:04006c004c03000041
:020000040000fa
:040070009c050000eb
:020000040000fa
:040074009c050000e7
:020000040000fa
:040078009c050000e3
:020000040000fa
:04007c009c050000df
:020000040000fa
:040080009c050000db
:020000040000fa
:040084009c050000d7
:020000040000fa
:040088009c050000d3
:020000040000fa
:04008c009c050000cf
:020000040000fa
:040090009c050000cb
:020000040000fa
:040094009c050000c7
:020000040000fa
:040098009c050000c3
:020000040000fa
:04009c009c050000bf
:020000040000fa
:0400a0009c050000bb
:020000040000fa
:0400a4009c050000b7
:020000040000fa
:0400a8009c050000b3
:020000040000fa
:0400ac009c050000af
:020000040000fa
:0400b0009c050000ab
:020000040000fa
:0400b400fa0200004c
:020000040000fa
:0400b8009c050000a3
:020000040000fa
:0400bc009c0500009f
:020000040000fa
:0400c0009c0500009b
:020000040000fa
:0400c4009c05000097
:020000040000fa
:0400c8009c05000093
:020000040000fa
:0400cc009c0500008f
:020000040000fa
:0400d0009c0500008b
:020000040000fa
:0400d4009c05000087
:020000040000fa
:0400d8009c05000083
:020000040000fa
:0400dc009c0500007f
:020000040000fa
:0400e0009c0500007b
:020000040000fa
:0400e4009c05000077
:020000040000fa
:0400e8009c05000073
:020000040000fa
:0400ec009c0500006f
:020000040000fa
:0400f0009c0500006b
:020000040000fa
:0400f4009c05000067
:020000040000fa
:0400f8009c05000063
:020000040000fa
:0400fc009c0500005f
:020000040000fa
:040100009c0500005a
:020000040000fa
:040104009c05000056
:020000040000fa
:040108009c05000052
:020000040000fa
:04010c009c0500004e
:020000040000fa
:040110009c0500004a
:020000040000fa
:040114009c05000046
:020000040000fa
:040118009c05000042
:020000040000fa
:04011c009c0500003e
:020000040000fa
:040120009c0500003a
:020000040000fa
:040124009c05000036
:020000040000fa
:040128009c05000032
:020000040000fa
:04012c009c0500002e
:020000040000fa
:040130009c0500002a
:020000040000fa
:040134009c05000026
:020000040000fa
:040138009c05000022
:020000040000fa
:04013c009c0500001e
:020000040000fa
:040140009c0500001a
:020000040000fa
:040144009c05000016
:020000040000fa
:040148009c05000012
:020000040000fa
:04014c009c0500000e
:020000040000fa
:040150009c0500000a
:020000040000fa
:040154009c05000006
:020000040000fa
:040158009c05000002
:020000040000fa
:04015c009c050000fe
:020000040000fa
:040160009c050000fa
:020000040000fa
:040164009c050000f6
:020000040000fa
:040168009c050000f2
:020000040000fa
:04016c009c050000ee
:020000040000fa
:040170009c050000ea
:020000040000fa
:040174009c050000e6
:020000040000fa
:040178009c050000e2
:020000040000fa
:04017c009c050000de
:020000040000fa
:040180009c050000da
:020000040000fa
:040184009c050000d6
:020000040000fa
:040188009c050000d2
:020000040000fa
:04018c009c050000ce
:020000040000fa
:040190009c050000ca
:020000040000fa
:040194009c050000c6
:020000040000fa
:040198009c050000c2
:020000040000fa
:04019c009c050000be
:020000040000fa
:0401a0009c050000ba
:020000040000fa
:0401a4009c050000b6
:020000040000fa
:0401a8009c050000b2
:020000040000fa
:0401ac009c050000ae
:020000040000fa
:0401b0009c050000aa
:020000040000fa
:0401b4009c050000a6
:020000040000fa
:0401b8009c050000a2
:020000040000fa
:0401bc009c0500009e
:020000040000fa
:0401c0009c0500009a
:020000040000fa
:0401c4009c05000096
:020000040000fa
:0401c8009c05000092
:020000040000fa
:0401cc009c0500008e
:020000040000fa
:0401d0009c0500008a
:020000040000fa
:0401d4009c05000086
:020000040000fa
:0401d8009c05000082
:020000040000fa
:0401dc009c0500007e
:020000040000fa
:0401e0009c0500007a
:020000040000fa
:0401e4009c05000076
:020000040000fa
:0401e8009c05000072
:020000040000fa
:0401ec009c0500006e
:020000040000fa
:0401f0009c0500006a
:020000040000fa
:0401f4009c05000066
:020000040000fa
:0401f8009c05000062
:020000040000fa
:0401fc009c0500005e
:020000040000fa
:040200009c05000059
:020000040000fa
:040204009c05000055
:020000040000fa
:040208009c05000051
:020000040000fa
:04020c009c0500004d
:020000040000fa
:040210009c05000049
:020000040000fa
:040214009c05000045
:020000040000fa
:040218009c05000041
:020000040000fa
:04021c009c0500003d
:020000040000fa
:040220009c05000039
:020000040000fa
:040224009c05000035
:020000040000fa
:040228009c05000031
:020000040000fa
:04022c009c0500002d
:020000040000fa
:040230009c05000029
:020000040000fa
:040234009c05000025
:020000040000fa
:040238009c05000021
:020000040000fa
:04023c009c0500001d
:020000040000fa
:040240009c05000019
:020000040000fa
:040244009c05000015
:020000040000fa
:040248009c05000011
:020000040000fa
:04024c009c0500000d
:020000040000fa
:040250009c05000009
:020000040000fa
:040254009c05000005
:020000040000fa
:040258009c05000001
:020000040000fa
:04025c009c050000fd
:020000040000fa
:040260009c050000f9
:020000040000fa
:040264009c050000f5
:020000040000fa
:040268009c050000f1
:020000040000fa
:04026c009c050000ed
:020000040000fa
:040270009c050000e9
:020000040000fa
:040274009c050000e5
:020000040000fa
:040278009c050000e1
:020000040000fa
:04027c009c050000dd
:020000040000fa
:040280009c050000d9
:020000040000fa
:040284009c050000d5
:020000040000fa
:040288009c050000d1
:020000040000fa
:04028c009c050000cd
:020000040000fa
:040290009c050000c9
:020000040000fa
:040294009c050000c5
:020000040000fa
:040298009c050000c1
:020000040000fa
:04029c009c050000bd
:020000040000fa
:0402a0009c050000b9
:020000040000fa
:0402a4009c050000b5
:020000040000fa
:0402a8009c050000b1
:020000040000fa
:0402ac009c050000ad
:020000040000fa
:0402b0009c050000a9
:020000040000fa
:0402b4009c050000a5
:020000040000fa
:0402b8009c050000a1
:020000040000fa
:0402bc009c0500009d
:020000040000fa
:0402c0009c05000099
:020000040000fa
:0402c4009c05000095
:020000040000fa
:0402c8009c05000091
:020000040000fa
:0402cc009c0500008d
:020000040000fa
:0402d0009c05000089
:020000040000fa
:0402d4009c05000085
:020000040000fa
:0402d8009c05000081
:020000040000fa
:0402dc009c0500007d
:020000040000fa
:0402e0009c05000079
:020000040000fa
:0402e4009c05000075
:020000040000fa
:0402e8009c05000071
:020000040000fa
:0402ec009c0500006d
:020000040000fa
:0402f0009c05000069
:020000040000fa
:0402f4009c05000065
:020000040000fa
:0402f8009c05000061
:020000040000fa
:0402fc009c0500005d
:020000040000fa
:040300009c05000058
:020000040000fa
:040304009c05000054
:020000040000fa
:040308009c05000050
:020000040000fa
:04030c009c0500004c
:020000040000fa
:040310009c05000048
:020000040000fa
:100400000f4021000eff24000e01880000000000b4
:10041000000020000000e000020032000001200087
:100420002002880014000700c50107000000e0005a
:1004300003003a0040c32100010020000200370001
:100440000000200001002000810f70000100320038
:100450000f000700000020000000e0000200320052
:100460000000020000000000fc0502000000000087
:100470000040da000000fe00200020000000e00044
:1004800002003200100020009001880000000600e9
:10049000a1028800800478000000eb001f003700f4
:1004a000e284440054a0b4009905ba00e2844400f8
:1004b00054a0b4009906ba00e284440054a0b400e9
:1004c0000006eb00476fde00fd07b200ae018800ba
:1004d000636ce10003003a000ad801000000eb0061
:1004e0000e003700606ce10008003a00004deb00a0
:1004f0000a05e800020039003420ec000af0a000f0
:100500008b05e900f9ff3e00040037006168e10057
:10051000010032000086eb000b00070019c7ba008b
:100520000e04e0001905ba0003003a000a00e000da
:10053000dbff3a0000000600fe07b200ae028800b2
:100540008a047800f5ff37000cd0a300e20f4d00bd
:100550001c00390089027800354dba000a05e80010
:10056000020039003420ec000af0a0008b05e900fd
:100570000f003200254dba000a05e80002003900dc
:100580003420ec000af0a0008b05e90008003200de
:100590000c00e0000600320015cdba000a05e800a4
:1005a000020039003420ec000af0a0008b05e900bd
:1005b0008984e80054a0b4000b00e000e2ff3a0098
:1005c000000006009902ba00055d78008b05e9007d
:1005d000f7ff3200c82ade00055d78008b05e900d0
:1005e000f3ff32000c00e000f1ff320019ddba0029
:1005f000eeff3700809fbe000000fa00512080000f
:1006000000042000008060000000e00001003200d3
:100610000ac4a9000468a9000080fa004f00be00c7
:10062000004006003600f800c028a9000000eb00da
:10063000c10c07003600f800c30c0700c048a90031
:1006400010002000bc0c07003600f800c068a900ac
:1006500020002000b80c07003600f800c088a90070
:1006600030002000b40c07003600f800c0a8a90034
:1006700040002000b00c07003600f800c608a900b2
:1006800070002000ac0c07003600f800c488a900f8
:10069000a0002000a80c07003600f800809fbe00d4
:1006a000829fbe00849fbe00869fbe000000fa00ad
:1006b0000228a900211080000008200000806000ae
:1006c0000000e0000800320004e2a9000830ef005a
:1006d00070808000200090008000eb00010878000e
:1006e0000e30ef000d013700408080008000eb00ed
:1006f000b200200003002000820f5000838f5800ba
:10070000fc003e00000601000b00370039003700f6
:10071000750037009c003700f3003700c800370031
:10072000d9003700f0003700db003700f100370058
:1007300034003700500037000000210020009000f6
:10074000620060000000e000f3003a0000002100b9
:1007500010009000708088000000210010009000c0
:10076000104078000af0b70000002100100090004f
:1007700010009000608088000000210010009000b0
:10078000e600400000002100110098000000210058
:100790009000900040042100808f500003003a0038
:1007a00000002100e1032100110098000000210059
:1007b000a00090000100a10021009800000021008d
:1007c000900090000000210010007800808f500001
:1007d00004003a0000002100a00090000110a000d9
:1007e000210098000002a80020002000408088001e
:1007f000ca0037000022a8002000200040808800a6
:10080000c600370021108000000028000080600032
:100810000000e0000800320000002100604090006d
:100820008040e80000002100614098004000200066
:10083000b1090700b9003700808080008000d10036
:10084000f00f200000806000601088008080800031
:1008500061006000004078000004e0000300320006
:10086000b000200040808800ac003700300020003d
:1008700040808800a9003700211080000000280077
:10088000008060000000e00008003200000021004d
:10089000604090008040e800000021006140980026
:1008a00040002000940907009c0037000022a800a7
:1008b000808080004800de00e6006000000f20001d
:1008c0000100700080808800808080000000a0000f
:1008d0008080880010c0b30012f0b7002000200014
:1008e000408088008d00370012d0bf00e14f5000db
:1008f0000a0032006080800010007800808088004c
:100900006080800020009000a080880060808000cf
:100910002040900016f0b700010037001270ef0081
:1009200081808000f00f2000808f50000900360089
:10093000808080004800de00e6006000000f20009c
:100940000100700060108800a00020004080880036
:1009500072003700808080006010880080808000f6
:1009600061006000004078000004e00003003200f5
:1009700050002000408088006800370030002000d0
:1009800040808800650037002110800000002800aa
:10099000008060000000e00009003200000021003b
:1009a000604090008040e800000021006140980015
:1009b00005e2a900500020004f090700570037004a
:1009c00016d0bf008080fb008100e900cf08de0068
:1009d000814078000040e90016f0b7000104e00013
:1009e0001000320060808000660040006080880057
:1009f0000ad0bf000040e9000af0b7000ad0bf00eb
:100a00000004e00003003a00200020003a0907003b
:100a1000420037000022a80020002000408088000b
:100a20003e003700a0808000904078008180fb006d
:100a3000611088000000e800a080880037003700bf
:100a40002110800000002800008060000000e0000d
:100a50000900320000002100604090008040e80062
:100a6000000021006140980040002000220907009a
:100a700005e2a900290037000062a80080002000dc
:100a800040808800250037008000200040808800da
:100a90000062a80021003700a08080007110800053
:100aa00081407800014878000000e800a0808800bc
:100ab00016d0bf000040e90016f0b70016d0bf0006
:100ac0000004e0000400320000a2a9006000200041
:100ad000408088000200370000a2a800f508070047
:100ae0000082a8000d003700200020000209070046
:100af0000a00370000002100604090008040e800bc
:100b0000000021006140980060002000fa08070002
:100b10000000000001003700000000000080fa0023
:100b20004f03be004f02be004f01be004f00be008b
:100b30003600f900004006000040da000000fe0028
:040b400000000500ac
:020000040000fa
:100b44000000fa002023a8000080fa00000006003c
:100b54000000fa002023a9000080fa00000006002b
:100b64000000fa00001880000080fa00000006006f
:100b74000000fa0000198000004078006140600025
:100b84000080fb0000f0a7000000ea000000ea007b
:100b94004f00de00004078000080fa0000000600ec
:100ba4000200fa00000f78001e0078000040780070
:100bb400f043b2008080fb00f0032000008060005e
:100bc4004219800001fc2f008100610001007000c7
:100bd400401988000080fa00000006000000fa00b6
:100be400c3e8a80000000000000000000080fa0034
:100bf400000006005400fa000d0b0700f7ff070081
:100c04000000eb00000f78000000eb00000f7800fc
:100c1400010037001e0fe800e00f20009e0078005e
:100c2400808f5000fbff340015eea90019eea900d7
:100c3400b07080004f00de00004078000080fb00b0
:100c4400100798000600370019eea900b070800064
:100c54004f00de00004078000080fb001007980081
:100c64001e0090000000e000f7ff3a00008ea9008b
:100c7400048ea900107080004400de006140600012
:100c84000080fb002007980006003700048ea900ae
:100c9400107080004400de00614060000080fb00b2
:100ca400200798002e0090000000e000f7ff3a00b3
:100cb400600220000e004000000f98006003200036
:100cc4000e004000100f980020002000200f980014
:100cd4006000b800300f9800410f98000040eb000e
:100ce400604798000040eb00704798000000eb005c
:100cf40040079800fc040700030037000e0890002a
:100d04003c050700604798006e4090000004a20074
:100d14000004e000f9ff3a003e119000ce1190006b
:100d2400320f9800430f98006000b80030279800f5
:100d340041279800600420000e004000500f9800e6
:100d440010c0b300204f98008e017800a304b000b7
:100d5400000009008019eb008059eb00a00420007a
:100d64000e004000600f98001000200060079800fb
:100d74008e007800d104b000020009008058eb0016
:100d8400d00420000e004000700f98000e0178007f
:100d94000205b000000009000019eb000059eb0047
:100da400000520000e004000001798000000eb0032
:100db400700798003e089000ce089000220420009e
:100dc40003002000820f5000838f5800cb013200b3
:100dd4002204200003002000820f5000838f58005b
:100de40025003e000202200003002000820f500074
:100df400838f5800bf00320002022000030020004d
:100e0400820f5000838f58000b003e00d200200058
:100e140003002000820f5000838f58002203320009
:100e24000201200003002000820f5000838f58002d
:100e340071003200c40337000203200003002000c5
:100e4400820f5000838f58001c01320002042000de
:100e540003002000820f5000838f58005f0132008e
:100e64002202200003002000820f5000838f5800cc
:100e7400df003200b4033700e20d2000030020003d
:100e8400820f5000838f580072023200e20d20005e
:100e940003002000820f5000838f580010003e0092
:100ea400b20a200003002000820f5000838f5800f4
:100eb400d3013200c20b200003002000820f500037
:100ec400838f580036023200020520000300200000
:100ed400820f5000838f5800bb0132009a03370001
:100ee4003212200003002000820f5000838f58002c
:100ef4000e003200d23a200003002000820f50007e
:100f0400838f580026033200f20e200003002000d5
:100f1400820f5000838f5800b60232008a033700d4
:100f24005e08900012070700204f98002e4890009a
:100f34000004e000faff3a00eec190002367980035
:100f4400fec09000316798000ec990004267980077
:100f54009ec99000536798001032200001002000c1
:100f6400301f9800411f980040c0b300207f9800b4
:100f740010c0b300307f980080c0b300407f980059
:100f8400ae489000517f98002e619000627f9800d7
:100f9400be619000737f9800ce60900001c79800f6
:100fa4005e61900012c798000040eb0020c79800d3
:100fb4000040eb0030c798000040eb0040c79800a9
:100fc4003c040700040037009e0890002e0890009f
:100fd40052040700704798007e4090000004a2006d
:100fe4000004e000f8ff3a006000b800300f9800f9
:100ff400410f98005403370015eea90019eea9001b
:10100400b07080004f00de00004078000080fb00dc
:10101400100798000600370019eea900b070800090
:101024004f00de00004078000080fb0010079800ad
:101034001e0090000000e000f7ff3a0010012000bd
:1010440001002000301f9800411f980040c0b300e9
:10105400207f980010c0b300307f980080c0b30098
:10106400407f98001e0090004800de000040780099
:10107400507f98001e00900000407800607f980028
:101084000040eb00707f98001e0090000040780044
:1010940000c798000040eb0010c798001e009000a5
:1010a4000040780020c798000040eb0030c798004b
:1010b4001e0090000040780040c79800fd03070020
:1010c400040037009e0890002e08900013040700c7
:1010d400704798007e4090000004a2000004e000e5
:1010e400f8ff3a006000b800300f9800410f9800f4
:1010f4001503370015eea90019eea800b0708000a2
:101104004f00de00004078000080fb0010079800cc
:101114000600370019eea800b07080004f00de0012
:10112400004078000080fb00100798001e0090002b
:10113400e10f5000f7ff3a001002200001002000e8
:10114400301f9800411f980040c0b300207f9800d2
:1011540010c0b300307f980080c0b300407f980077
:101164001e0090004800de0000407800507f980088
:101174001e00900000407800607f98000040eb0063
:10118400707f98001e0090000040780000c798000f
:101194000040eb0010c798001e009000004078004b
:1011a40020c798000040eb0030c798001e00900054
:1011b4000040780040c79800be03070004003700d1
:1011c4009e0890002e089000d403070070479800f2
:1011d4007e4090000004a2000004e000f8ff3a0002
:1011e4006000b800300f9800410f9800d602370015
:1011f400b07080004f00de00004078000080fb00eb
:10120400100798000022200001002000301f9800e1
:10121400411f980040c0b300207f980010c0b30065
:10122400307f980080c0b300407f98001e0090007b
:101234004800de0000407800507f98001e009000b7
:1012440000407800607f98000040eb00707f9800b9
:101254001e0090000040780000c798000040eb009a
:1012640010c798001e0090000040780020c7980026
:101274000040eb0030c798001e009000004078004a
:1012840040c798008b030700040037009e089000b5
:101294002e089000a1030700704798007e4090003c
:1012a4000004a2000004e000f8ff3a006000b80067
:1012b400300f9800410f9800a3023700008ea90058
:1012c400048ea900107080004400de0061406000bc
:1012d4000080fb00200798000d003700048ea90051
:1012e400107080004400de00614060000080fb005c
:1012f400200798004e0090000000e8004007980086
:10130400ce009000f00f2000808f500004003200c7
:101314002e0090000000e000f0ff3a0001003700ca
:10132400000000001003200001002000301f98007e
:10133400411f980040c0b300207f980010c0b30044
:10134400307f980080c0b300407f98002e0090004a
:101354004800de0000407800507f98002e00900086
:1013640000407800607f98000040eb00707f980098
:101374002e0090000040780000c798000040eb0069
:1013840010c798002e0090000040780020c79800f5
:101394000040eb0030c798002e0090000040780019
:1013a40040c7980043030700040037009e089000dc
:1013b4002e08900059030700704798007e40900063
:1013c4000004a2000004e000f8ff3a006000b80046
:1013d400300f9800410f98005b023700008ea9007f
:1013e400048ea800107080004400de00614060009c
:1013f4000080fb00200798000d003700048ea80031
:10140400107080004400de00614060000080fb003a
:10141400200798004e0090000000e8004007980064
:10142400ce009000f00f2000808f500004003200a6
:101434002e009000e10f5000f0ff3a000100370049
:10144400000000001004200001002000301f98005c
:10145400411f980040c0b300207f980010c0b30023
:10146400307f980080c0b300407f98002e00900029
:101474004800de0000407800507f98002e00900065
:1014840000407800607f98000040eb00707f980077
:101494002e0090000040780000c798000040eb0048
:1014a40010c798002e0090000040780020c79800d4
:1014b4000040eb0030c798002e00900000407800f8
:1014c40040c79800fb020700040037009e08900004
:1014d4002e08900011030700704798007e4090008a
:1014e4000004a2000004e000f8ff3a006000b80025
:1014f400300f9800410f98001302370010708000dd
:101504004400de00614060000080fb00200798007a
:101514000042200001002000301f9800411f980065
:1015240040c0b300207f980010c0b300307f980003
:1015340080c0b300407f98002e0090004800de0079
:1015440000407800507f98002e0090000040780002
:10155400607f98000040eb00707f98002e009000a0
:101564000040780000c798000040eb0010c79800c6
:101574002e0090000040780020c798000040eb0047
:1015840030c798002e0090000040780040c79800b3
:10159400c8020700040037009e0890002e0890003f
:1015a400de020700704798007e4090000004a2000d
:1015b4000004e000f8ff3a006000b800300f980023
:1015c400410f9800e001370000c3b30020cf98001a
:1015d4005e68900030cf98006e68900040cf98000d
:1015e4006e09900031c0b30030c7b300f6040700a1
:1015f4006000b800300f9800410f9800d201370006
:1016040000c6b30050cf98005e68900060cf980089
:101614006e68900070cf98000b0037007e09900030
:1016240031c0b30000c6b300e70407004e009000c9
:101634000000e80040079800ce009000f00f200062
:10164400808f5000040032006e009000e20f5000c2
:10165400f2ff3a00010037000000000010002000f3
:10166400600798000000eb00400798000000eb00c2
:10167400000f7800010037001e0fe8001e007800fc
:10168400e90f5000fcff34000c0037000e119000ed
:1016940031c0b30000c6b30000050700600798001e
:1016a4004e0090000000e80040079800ce00900033
:1016b400f00f2000808f5000040032006e00900074
:1016c400e20f5000f1ff3a00010037000000000073
:1016d400a00b200001002000301f9800411f98003b
:1016e40040c0b300207f980010c0b300307f980042
:1016f40080c0b300407f98000ed09000507f9800c7
:101704001ed09000607f98002ed09000707f9800cb
:101714000040eb0000c798000040eb0010c79800a1
:101724000040eb0020c798000040eb0030c7980051
:101734000040eb0040c798005e0207000400370039
:101744009e0890002e0890007402070070479800cd
:101754007e4090000004a2000004e000f8ff3a007c
:101764006000b800300f9800410f980076013700f0
:101774000e11900031c0b30000c6b300c7040700c7
:10178400600798004e0090000000e80040079800b1
:10179400ce009000f00f2000808f50000400320033
:1017a4006e009000e20f5000f1ff3a000100370094
:1017b40000000000b00c200001002000301f980041
:1017c400411f980040c0b300207f980010c0b300b0
:1017d400307f980080c0b300407f98000ed0900006
:1017e400507f98001ed09000607f98002ed090000b
:1017f400707f98000040eb0000c798000040eb00a9
:1018040010c798000040eb0020c798000040eb0090
:1018140030c798000040eb0040c79800250207003d
:10182400040037009e0890002e0890003b02070039
:10183400704798007e4090000004a2000004e0007d
:10184400f8ff3a006000b800300f9800410f98008c
:101854003d01370000c6b30050cf98005e68900089
:1018640060cf98006e68900070cf98000b0037002e
:101874007e09900031c0b30010c6b30052040700c3
:101884004e0090000000e80040079800ce00900051
:10189400f00f2000808f5000040032006e00900092
:1018a400e20f5000f2ff3a00010037000000000090
:1018b40010002000600798000000eb00400798002b
:1018c4000000eb00000f7800010037001e0fe80055
:1018d4001e007800e90f5000fcff34000c003700b4
:1018e4000e11900031c0b30010c6b3006b040700a2
:1018f400600798004e0090000000e8004007980040
:10190400ce009000f00f2000808f500004003200c1
:101914006e009000e20f5000f1ff3a000100370022
:1019240000000000d00e200001002000301f9800ad
:10193400411f980040c0b300207f980010c0b3003e
:10194400307f980080c0b300407f98000ed0900094
:10195400507f98001ed09000607f98002ed0900099
:10196400707f98000040eb0000c798000040eb0037
:1019740010c798000040eb0020c798000040eb001f
:1019840030c798000040eb0040c79800c901070029
:10199400040037009e0890002e089000df01070025
:1019a400704798007e4090000004a2000004e0000c
:1019b400f8ff3a006000b800300f9800410f98001b
:1019c400e10037000e11900031c0b30010c6b3001f
:1019d40032040700600798004e0090000000e80001
:1019e40040079800ce009000f00f2000808f500038
:1019f400040032006e009000e20f5000f1ff3a0044
:101a04000100370000000000e00f2000010020006a
:101a1400301f9800411f980040c0b300207f9800f9
:101a240010c0b300307f980080c0b300407f98009e
:101a34000ed09000507f98001ed09000607f9800d8
:101a44002ed09000707f98000040eb0000c79800f3
:101a54000040eb0010c798000040eb0020c798003e
:101a64000040eb0030c798000040eb0040c79800ee
:101a740090010700040037009e0890002e08900093
:101a8400a6010700704798007e4090000004a20061
:101a94000004e000f8ff3a006000b800300f98003e
:101aa400410f9800a8003700100020003cfc0700fc
:101ab40023fc07000000eb00000f78000100370052
:101ac4001e0fe800703e20009e007800808f5000ba
:101ad400fbff34001efc07000200370020fc070057
:101ae4007007980022fc07000004a2000004e00034
:101af400faff3a00000d200001002000301f98007a
:101b0400411f980040c0b300207f980010c0b3006c
:101b1400307f980080c0b300407f98007e00900022
:101b24004800de0000407800507f98007e0090005e
:101b340000407800607f98000040eb00707f9800c0
:101b44000040eb0000c798000040eb0010c798006d
:101b54000040eb0020c798000040eb0030c798001d
:101b64000040eb0040c79800520107000400370012
:101b74009e0890002e0890006801070070479800a6
:101b84007e4090000004a2000004e000f8ff3a0048
:101b94006000b800300f9800410f98006a003700c9
:101ba4000000eb00fefb0700e5fb07000000eb0074
:101bb400000f7800010037001e0fe800703e20007f
:101bc4009e007800808f5000fbff3400e0fb07008c
:101bd40002003700e2fb070070079800e4fb0700ef
:101be4000004a2000004e000faff3a00a03d200037
:101bf40001002000301f9800411f980040c0b3002e
:101c0400207f980010c0b300307f980080c0b300dc
:101c1400407f98007e0090004800de00004078007d
:101c2400507f98007e00900000407800607f98000c
:101c34000040eb00707f980020002000d8fb0700d4
:101c4400bffb07000000eb00000f78000100370025
:101c54001e0fe800703e20009e007800808f500028
:101c6400fbff3400bafb070002003700bcfb07008f
:101c740070079800befb07000004a2000004e00007
:101c8400faff3a007e0090004800de000040780031
:101c940000c798007e0090000040780010c79800ac
:101ca4000040eb0020c7980030002000bcfb070078
:101cb400a3fb07000000eb00000f780001003700d1
:101cc4001e0fe800703e20009e007800808f5000b8
:101cd400fbff34009efb070002003700a0fb070057
:101ce40070079800a2fb07000004a2000004e000b3
:101cf400faff3a007e0090004800de0000407800c1
:101d040030c798007e0090000040780040c79800db
:101d1400e8000700040037009e0890002e08900099
:101d2400fe000700704798007e4090000004a20067
:101d34000004e000f8ff3a006000b800300f98009b
:101d4400410f9800000000000000eb00000f780035
:101d5400010037001e0fe800703e20009e0078004e
:101d6400808f5000fbff34002024ef00d0fb3700ad
:101d74000200fa00000f78001e007800e10f500006
:101d840009003200e10f500005003900e20f500055
:101d940007003200e30f500007003200080037004c
:101da40001eba8000600370011eba800040037007f
:101db40021eba8000200370031eba800000000006e
:101dc4000080fa00000006000400fa00000f78000a
:101dd400110798001e007800e10f50000b0032003c
:101de400e10f500005003900e20f50000b003200f3
:101df400e30f50000d003200100037009e009000e9
:101e040021588800062bef000c0037009e0090003c
:101e1400a1588800162bef00080037009e009000a0
:101e240021598800262bef00040037009e00900003
:101e3400a1598800362bef00000000000080fa0052
:101e4400000006000400fa00000f78001107980053
:101e54001e007800e10f50000a003200e10f50002c
:101e640005003900e20f500009003200e30f500072
:101e74000a0032000c0037009e0090006158880070
:101e8400090037009e009000e158880006003700e2
:101e94009e00900061598800030037009e00900066
:101ea400e1598800000000000080fa0000000600ec
:101eb4000000fa002468a9000c24ef00012080002f
:101ec400f08f2f000080600000a0a0000020880098
:101ed4000000000001208000000e200080806000cf
:101ee40000082000808f5000faff3a001024ef0011
:101ef400801920009020880010002c0030208800d9
:101f040070002000a02088000024ef000004a80036
:101f1400c1208000c0ff2f0000806000c020880026
:101f2400802180007f00600080218800a021800043
:101f34007f006000a0218800c02180007f00600035
:101f4400c021880081218000c0ff2f000080600034
:101f540080218800a1218000c0ff2f000080600044
:101f6400a0218800c1218000c0ff2f0000806000f4
:101f7400c02188003224ef003624ef003a24ef0019
:101f84003064a8003464a9003864a9004064a9003e
:101f940000228000ff006000004622000100700063
:101fa4000022880001228000c0ff2f000080600012
:101fb400002288000121800000ff2f0000806000c3
:101fc4000000a000002188000004a90030e4a8005b
:101fd40031e4a90032e4a90033e4a90034e4a900ff
:101fe40035e4a90036e4a90037e4a9008121800082
:101ff400c0ff2f00008060008021880081218000c4
:10200400f0cf2f00008060008021880091218000a3
:10201400c0ff2f0000806000902188009121800083
:10202400f0cf2f000080600090218800a121800063
:10203400c0ff2f0000806000a0218800a121800043
:10204400f0cf2f0000806000a0218800b121800023
:10205400c0ff2f0000806000b0218800b121800003
:10206400f0cf2f0000806000b02188002024ef0012
:102074002224ef002824ef002a24ef000a24a900d8
:1020840001208000f08f2f00008060000020880075
:102094000000000001208000000e2000008060008d
:1020a4000000e000fbff3a002468a8000080fa006a
:1020b400000006000000fa002044200080007800a0
:1020c4000000eb005fff0700002021008000780083
:1020d4000000eb003cff07000000eb0024ff0700ba
:1020e4000080fa00000006000000fa00004420000e
:1020f400800078001000200052ff0700002021001b
:1021040080007800100020002fff0700100020003e
:1021140017ff07000080fa00000006000a00fa001a
:10212400300798004107980000432000000f780012
:102134000040eb00404798000000eb0010079800b7
:10214400260037001e0078009040780000c8b300d5
:1021540000c060000004e0001c0032001e00780093
:1021640010407800684060000004e00017003a0066
:10217400012021001e0090004400dd00008040008a
:10218400ce009000a30107003e00900000407800bc
:10219400e34060001e007800e3c0600090417800d6
:1021a400c2cfb30002c161008140710001487800d0
:1021b4001e007800904078000134a00001487800a7
:1021c40010c0b30040479800070037001e0fe80016
:1021d4001e0090000000e800100798001e00900008
:1021e4000000e000d7ff32004e4090000080fa006b
:1021f400000006000800fa00300798000040eb00d9
:102204002047980001218000210798002e009000ab
:102214000000e000280032000000eb00000f78000e
:1022240020003700c0808000ae0090000008de006f
:1022340061006000004078000004e0000e003200fd
:10224400c080800000407800be0090006f0007004e
:10225400c0808000110020000008dd000080ea003a
:102264008000780000218000008060000021880048
:1022740010c0b30020479800c08080000000e80030
:10228400c0808800c0808000ef0f5000010036003d
:102294001830ef002e4090000004e00005003a00e2
:1022a4001e0fe8001e007800ef0f5000ddff36001f
:1022b40001003700000000002e4090000080fa006a
:1022c400000006000000fa00502080004d00de00ef
:1022d400614060000080fb0000f0a7000000ea00fd
:1022e4000000ea004f00de00004078000080fa00a1
:1022f400000006000000fa00502080004b00de00c1
:10230400614060000080fb0000f0a7000000ea00cc
:102314000000ea004f00de00004078000080fa0070
:10232400000006000000fa00502080004c00de008f
:10233400614060000080fb0000f0a7000000ea009c
:102344000000ea004f00de00004078000080fa0040
:10235400000006000600fa000000eb00000f780001
:1023640001218000210798002e0090000000e00069
:10237400110032000000eb00100798000b0037003a
:102384001e009000ae0090000008de0061006000b6
:10239400004078000004e000010032001e0fe80055
:1023a4001e0090000000e800100798001e00900036
:1023b400ef0f5000f2ff36001e0078000040780056
:1023c4000080fa00000006000000fa000ac4a90018
:1023d4000cc4a80001208000f08f2f000080600052
:1023e4000080a00000208800000000000120800080
:1023f400000e20008080600000022000808f5000ca
:10240400faff3a000080fa00000006000c00fa000f
:10241400004f9800510798000000eb001007980047
:102424000000eb00000f78006000b800200798005f
:10243400310798000e4890000080fb00c400dd00c6
:10244400002021000080400010007800610060003e
:10245400100798001e0090000000e00017003a00ea
:102464000e4890000080fb00c400dd000020210025
:102474000080400090007800c0ff210000806000d0
:102484004200de008000eb005e0190000089be0087
:102494005e00900041c0b300414098000e48900097
:1024a4000080fb00c400dd0000202100008040000b
:1024b40010007800620f60006b0037000e48900037
:1024c4000080fb00c400dd000020210000804000eb
:1024d400100078006101b800c0ff21000100200055
:1024e400020278000301780080017800010078007e
:1024f40003026200000061008000eb00c000dd0008
:10250400000020000001be006120b800000171003d
:102514008181710022079800330798002e009000f3
:10252400be009000c000dd00000020005e019000ad
:102534000089be005e0090001002780090029000b6
:102544000e4890000080fb004400dd008080e8001d
:102554000020210000804000100078006101b800d4
:10256400f0ff20000100200002037800030178003e
:10257400800178000100780003036300000061001b
:102584008000eb00c000dd00000020000001be0060
:102594006130b80000017100818171004618dd00ce
:1025a400ca10de00810070004610dd000400400007
:1025b400858048005e0190000089be005e009000a6
:1025c40010027800900290000e4890000080fb00fa
:1025d4004400dd00e40040000020210000804000b1
:1025e400100078004a00de006101b800f0ff2f00ff
:1025f40001002000020378000301780080017800c4
:102604000100780003036300000061008000eb0018
:10261400c000dd00000020000001be006130b800f1
:10262400000171008181710004004100858049002e
:102634005e0190000089be005e00900031c0b300ce
:10264400414098000e4890000080fb004400dd00eb
:10265400e400400000202100008040009000780049
:1026640000202000008f60001e0078000000e000c1
:10267400040032005e00900021c0b3005140980075
:10268400620037005e00900011c0b3005140980012
:102694000e4890000080fb004400dd00e60040008e
:1026a4000020210000804000100078008040780065
:1026b4005e009000714098000e4890000080fb007e
:1026c4004400dd00e60040000020210000804000be
:1026d400100078004800de00804078005e00900022
:1026e400014898000e4890000080fb004400dd0083
:1026f400e800400000202100008040001000780025
:10270400804078005e009000114898000e489000c8
:102714000080fb004400dd00e800400000202100b0
:1027240000804000100078004800de0080407800ff
:102734005e009000214898000e4890000080fb0045
:102744004400dd00ea004000002021000080400039
:1027540010007800804078005e00900031489800b6
:102764000e4890000080fb004400dd00ea004000b9
:102774000020210000804000100078004800de00a6
:10278400804078005e009000414898000e48900018
:102794000080fb004400dd00ec004000002021002c
:1027a4000080400010007800804078005e009000b7
:1027b400514898000e4890000080fb004400dd0062
:1027c400ec00400000202100008040001000780050
:1027d4004800de00804078005e0090006148980068
:1027e4000e4890000080fb004400dd00e40040003f
:1027f4000020210000804000100078000040780094
:10280400ef4060005e009000614098000080fa0094
:10281400000006000400fa00000f78001107980079
:102824001e00900040409000e44f500014003a0015
:102834001e00900090009000100078008000780046
:10284400f07f200000806000c200dd001e007800e0
:10285400010878001e80e8008000eb000108780081
:102864009e007800648040009e009000e14090004b
:102874008180fb00ef8060000108780024003700ad
:102884001e00900090009000100078004008de00c8
:1028940080007800c0ff2100008060008000780084
:1028a4000100a0001e007800010878001e81e800e5
:1028b4001e0090009000900010007800ca09dd000e
:1028c4004600de0000807100c608de00800078004b
:1028d400f0ff200000806000000978009e0078006e
:1028e400648140001e009000604090000080fb0066
:1028f400ef0160001e00900090009000100078002e
:10290400000078004a00dd000080410000097800e2
:102914009e017800668041009e00900081489000ee
:102924008180fb004809dd009e009000f14090008a
:102934008180fb0081004100010878009e0078003e
:10294400688040009e009000a14890008180fb00b8
:102954004809dd009e009000914890008180fb00b2
:1029640081004100010878009e0178006a804100de
:102974009e009000c14890008180fb004809dd0062
:102984009e009000b14890008180fb0081004100ce
:10299400010878009e0078006c8040009e00900042
:1029a400e14890008180fb004809dd009e00900012
:1029b400d14890008180fb0081004100010878002b
:1029c4000080fa00000006000a00fa006047980040
:1029d40071479800420798000000eb00000f780050
:1029e4000000eb001007980010002000200798005a
:1029f400220037006e4090000080fb00e400470096
:102a04008101780000017800fe4090004e009000a3
:102a140045010700070037009e009000f00f2000da
:102a2400808f5000070032001e0090000000e80074
:102a3400100798002e009000e10f5000f6ff3200be
:102a44000100370000000000f00f20009e00780015
:102a5400808f50000d0032001e0fe8002e00900001
:102a64000000e000030032002e009000e50f50004b
:102a740002003a002e009000060037002e0090005d
:102a8400e20f5000dbff3a000100370000000000b5
:102a94002e0090000080fa00000006000a00fa00f0
:102aa4006047980071479800420798000000eb00c7
:102ab400000f78000000eb001007980010002000c1
:102ac40020079800220037006e4090000080fb0031
:102ad400e40047008101780000017800fe40900086
:102ae4004e00900029010700070037009e00900067
:102af400f00f2000808f5000070032001e0090006d
:102b04000000e800100798002e009000e10f50002c
:102b1400f6ff32000100370000000000f00f200033
:102b24009e007800808f50000d0032001e0fe800d8
:102b34002e0090000000e000030032002e00900000
:102b4400e50f500002003a002e0090000600370006
:102b54002e009000e20f5000dbff3a000100370026
:102b6400000000002e0090000080fa000000060023
:102b74000c00fa00500798000000eb00000f7800ea
:102b84000000eb0010079800e0c4b3007047980001
:102b940010002000400798004e009000e20f500003
:102ba40024003200e80047006700470081017800f4
:102bb4007202200011c0b300db00070007003700d9
:102bc4009e009000f00f2000808f5000070032001c
:102bd4001e0090000000e800100798004e009000ce
:102be400e10f5000f6ff3200010037000000000042
:102bf400f00f20009e007800808f50000a00320001
:102c04001e0fe8004e0090000000e00003003200b8
:102c14004e009000e50f500005003a0030c0b300ac
:102c240060479800030037000000000001003700ef
:102c3400000000000000eb002007980003003700ac
:102c44002e0090000000e800200798002e0090005d
:102c5400e90f5000faff34004e009000e20f5000dc
:102c640030003a000000eb00000f78000000eb0099
:102c7400100798001f0037006800470080017800a3
:102c84007202200041c0b3005e009000bf00070044
:102c9400070037009e009000f00f2000808f500046
:102ca400070032001e0090000000e80010079800a2
:102cb4004e009000e10f5000f6ff32000100370093
:102cc40000000000f00f20009e007800808f50006c
:102cd4000c0032001e0fe8004e009000e20f50007e
:102ce4000900320020108000700060000000e00045
:102cf40005003a004e0090000000e000deff3a00bc
:102d040001003700000000005e00900010407800d1
:102d14000080fb004600de00604798006e40900093
:102d24000300370030c0b300604798006e40900045
:102d34000080fa00000006000c00fa0010c0b30086
:102d4400404798004e4090000004e0000300320029
:102d540000c6b300504798000200370000c7b30014
:102d6400504798000000eb00000f78000000eb00d3
:102d74001007980000c6b300604798000040eb00bd
:102d8400704798000040eb00004f980010002000ae
:102d9400500798001b003700ea0047006600470010
:102da400810178003207200031c0b3005e000700c3
:102db40005003700f00f20009e007800808f50003f
:102dc400050032001e0fe8005e009000e10f500085
:102dd400f8ff320001003700000000009e00900060
:102de400f00f2000808f50000a0032001e00900077
:102df4000000e800100798005e0090000000e0006a
:102e0400060032005e009000e20f5000e2ff3a003c
:102e1400030037000000000001003700000000003c
:102e24000080fa00000006000000fa000000210003
:102e3400e10321001100980000002100e1032100ba
:102e44000108780000002100a00090000110a000fb
:102e54002100980000002100a00090000100a100c2
:102e640021009800000021008040eb0061409800a0
:102e74002001200050108800000028000010880065
:102e84000422ef000228a9002228a8000080fa00ea
:102e9400000006000200fa0000002100e04090005b
:102ea400014f78001e4078000080fa000000060000
:102eb4000000fa00608080006600400060808800a6
:102ec4000ad0bf000040e9000af0b7000ad0bf00f2
:102ed4000004e00003003a00400020004080880025
:102ee4000200370010002000408088000080fa00b3
:102ef400000006000200fa00000f78000042a8005b
:102f040070808000200090000000e0000300320088
:102f140070808000200090001e0878000830ef00c8
:102f24000080fa00000006000800fa00000f780094
:102f340021479800220798003307980000002100d9
:102f440020009000610060000000e0000a003a00e8
:102f5400ae0190002e4190009e007800a004210054
:102f6400770007003e019000a104210010c0b300c7
:102f74001f000700030037003e0090008000eb00b4
:102f8400010878000080fa00000006000800fa003a
:102f9400000f780021479800220798003307980013
:102fa4000000210020009000610060000000e000ab
:102fb4000a003a00ae0190002e4190009e00780075
:102fc40040042100460007003e0190004104210016
:102fd40010c0b30006000700030037003e00900055
:102fe4008000eb00010878000080fa000000060071
:102ff4000600fa00004f7800110798002207980095
:103004000000210020009000610060000000e0004a
:103014002e003a002e0090001100200001087800d4
:1030240000002100100078009e009000110098001c
:1030340000002100100078001e48780000002100e4
:1030440010007800ae0090002100980000002100dc
:1030540010007800e600400000002100010878001c
:10306400000021009000780040042100808f50006f
:1030740003003a0000002100e10321000108780068
:1030840000002100a00090000110a1002100980080
:103094000000210090009000000021001000780042
:1030a400808f500004003a0000002100a00090002e
:1030b4000100a00021009800408080000000e00092
:1030c40005003a000228a800030037002e009000f3
:1030d4008000eb00010878000080fa000000060080
:1030e4000800fa00000f7800110798004247980082
:1030f400330798003e0090000000400080007800f4
:103104001e007800010878001e0078001000780086
:10311400800078000100a0001e00780001087800fb
:103124001e007800ce409000214098001e007800d8
:103134009e009000210098000080fa000000060024
:103144000800fa00000f7800110798004247980021
:10315400330798003e009000000040008000780093
:103164001e007800010878001e007800ce40900010
:10317400214098001e0078009e00900021009800d5
:103184000080fa00000006000000fa0000002100a0
:10319400200090006200600000f0a7000000ea0038
:1031a4000000ea004f00de00004078000080fa00d2
:1031b400000006000000fa0000002100200090003a
:1031c4006100600000f0a7000000ea000000ea00cf
:1031d4004f00de00004078000080fa000000060086
:1031e4000000fa00003a80000080fa0000000600a7
:1031f4000200fa00faff0700000f78001e007800b2
:10320400240007000004e00002003200000028004f
:10321400710007001e0078002a0007000004e00087
:1032240002003200000024006b0007001e0078003a
:10323400320007000004e0000200320000202000f9
:10324400650007001e0078003a0007000004e00053
:1032540002003200000820005f0007001e00780012
:10326400420007000004e0000200320000042000d5
:10327400590007001e0078004a0007000004e0001f
:103284000200320000012000530007000080fa0011
:10329400000006000400fa00100798000040eb004c
:1032a400004f78001e0090000000e00002003d0086
:1032b40010c0b300004f78001e4078000080fa0070
:1032c400000006000400fa00100798000040eb001c
:1032d400004f78009e0090000000240000806000f1
:1032e4000000e0000200320010c0b300004f78007c
:1032f4001e4078000080fa00000006000400fa0076
:10330400100798000040eb00004f78009e009000ea
:1033140000202000008060000000e0000200320075
:1033240010c0b300004f78001e4078000080fa00ff
:10333400000006000400fa00100798000040eb00ab
:10334400004f78009e00900000082000008060007c
:103354000000e0000200320010c0b300004f78000b
:103364001e4078000080fa00000006000400fa0005
:10337400100798000040eb00004f78009e0090007a
:1033840000042000008060000000e0000200320021
:1033940010c0b300004f78001e4078000080fa008f
:1033a400000006000400fa00100798000040eb003b
:1033b400004f78001e009000700060000000e000e4
:1033c4000200320010c0b300004f78001e407800a5
:1033d4000080fa00000006000200fa00000f7800e6
:1033e4009e80ea00003a800000806000003a880075
:1033f4000080fa00000006000000fa004027ef00f9
:103404000080fa00000006000000fa00000222001a
:10341400005888006004200010588800062bef0034
:1034240000002100205888000a2bef00082bef0031
:103434000c2bef0070002000705888000088a90051
:103444000002200080588800200220009058880044
:10345400162bef0000002100a05888001a2bef0063
:10346400182bef001c2bef0070002000f058880090
:1034740001c8a900202bef00222bef00262bef0020
:1034840000002100205988002a2bef00282bef0090
:103494002c2bef002e2bef000308a900302bef009c
:1034a400322bef00362bef0000002100a0598800da
:1034b4003a2bef00382bef003c2bef003e2bef00b4
:1034c4000488a9000080fa00000006000000fa0049
:1034d4000080fa00000006000000fa0000408000ae
:1034e400700060000000e00002003200f7ff0700f7
:1034f4000088a9000080fa00000006000000fa001d
:103504000080fa00000006000000fa00014080007c
:1035140000002400008060000000e000020032008f
:10352400f6ff070001c8a9000080fa0000000600a9
:103534000000fa000080fa00000006000000fa0013
:103544001140800000102000008060000000e000b6
:1035540002003200f6ff07000308a9000080fa0009
:10356400000006000000fa000080fa0000000600d7
:103574000000fa0020408000700060000000e000bd
:1035840002003200f7ff07000488a9000080fa0057
:10359400000006000000fa0045fa07000080fa0067
:1035a400000006000000fa00c2fa07000080fa00da
:1035b400000006000000fa00cbfa07000080fa00c1
:1035c400000006000400fa00000f780011079800bc
:1035d4001e009000800078001e007800cffa0700db
:1035e4000080fa00000006000200fa00000f7800d4
:1035f4001e007800fffa07000080fa0000000600b1
:103604000000fa002ffb07000080fa00000006000b
:103614000000fa0037fb07000080fa0000000600f3
:103624000000fa003ffb07000080fa0000000600db
:103634000000fa0047fb07000080fa0000000600c3
:103644000000fa0060fb07000080fa00000006009a
:103654000000fa00042eef00182eef007000200086
:1036640000708800f07f2700a07088000c2eef0007
:10367400202eef000a2eef001e2eef00062eef0084
:103684001a2eef00300020007070880030382000bf
:1036940010718800113a8000f00b20000081600056
:1036a4006004200071052000237420008049780004
:1036b4008149780082497800c0c2b300d4e6b700db
:1036c400c1338000f00f2c008080600000e02000f7
:1036d40001007000c0338800103a800000017800b7
:1036e4000260a00060042000710520002374200003
:1036f4008049780081497800824978000080fa0086
:10370400000006000000fa0000102300203a8800a0
:103714004827ef004e27ef0000032000303a8800ce
:103724006027ef006227ef006427ef006627ef00b1
:103734006a27ef006c27ef006e27ef0022002000bd
:1037440080072000a10920003374200080497800fc
:1037540081497800824978000001eb006004200070
:103764007105200023742000804978008149780085
:10377400824978000080fa00000006000000fa0088
:1037840000002800001988002223ef002423ef0002
:103794002823ef002e23ef003023ef000010200039
:1037a400901988002623ef00101980004200de00e3
:1037b4007f4060001af0b7000080fa0000000600a5
:1037c4000000fa000080fa00000006000000fa0081
:1037d4000140800000002200008060000000e00042
:1037e40002003200f6ff070001a8a9000080fa00d9
:1037f400000006000200fa00000f78002102800099
:10380400200f2000008060001e007000200288004d
:103814000080fa00000006000000fa00c3e8a800d7
:1038240000000000000000000080fa000000060014
:103834000000fa0086ff070031000700b1ff07000f
:1038440079fd0700cdff070099f90700eefe070098
:10385400f1ff070000022000e6ff07000080fa00e5
:04386400000006005a
:020000040000fa
:103868000012000000020000800000001810000094
:1038780002000000800000001a1000000200000092
:10388800800000001e1000002000000080000000e2
:103898001c1000000200000082000000ffff000072
:1038a8003e10000012000000800000000010000020
:0c38b8001800000080000000000000006c
:020000040000fa
:1038c4000000fa008fff07000080fa0000000600e5
:1038d4000000fa00003a80000080fa0000000600b0
:1038e4000000fa0042fe07000080fa000000060013
:1038f4000000fa00c0fe07000080fa000000060085
:103904000000fa0041428000f0f82f0000806000bf
:103914000040a000404288004142800080ff2f0008
:10392400008060000000a000404288000080fa008f
:1039340000000600000f78009e007800e1808800f7
:10394400ffff37000000fa00e00121008007780043
:1039540060032100000188000080fa0000000600d6
:020000040000fa
:020000040005f5
:04570000ffff0000a7
:020000040000fa
:020000040005f5
:04572000ffff000087
:020000040000fa
:020000040005f5
:045730007aff0000fc
:020000040000fa
:020000040005f5
:04573800baff0000b4
:020000040000fa
:020000040005f5
:045740009fff0000c7
:020000040000fa
:020000040005f5
:04574800ffff00005f
:020000040000fa
:020000040005f5
:04575000ffff000057
:020000040000fa
:020000040005f5
:04575800000000004d
:020000040000fa
:020000040005f5
:045760000000000045
:020000040000fa
:020000040005f5
:04576800000000003d
:020000040000fa
:020000040005f5
:045770000000000035
:020000040000fa
:020000040005f5
:04577800feff000030
:020000040000fa
:020000040005f5
:04578000ffff000027
:020000040000fa
:020000040005f5
:04578800ffff00001f
:00000001FF
