:020000040000fa
:080000000002040000000000f2
:020000040000fa
:0400080012030000df
:020000040000fa
:04000c0024030000c9
:020000040000fa
:040010003c030000ad
:020000040000fa
:040014001a030000cb
:020000040000fa
:040018002c030000b5
:020000040000fa
:04001c0034030000a9
:020000040000fa
:040020004403000095
:020000040000fa
:040024009c05000037
:020000040000fa
:040028009c05000033
:020000040000fa
:04002c009c0500002f
:020000040000fa
:040030009c0500002b
:020000040000fa
:040034009c05000027
:020000040000fa
:040038009c05000023
:020000040000fa
:04003c009c0500001f
:020000040000fa
:040040009c0500001b
:020000040000fa
:040044009c05000017
:020000040000fa
:040048009c05000013
:020000040000fa
:04004c009c0500000f
:020000040000fa
:040050009c0500000b
:020000040000fa
:040054009c05000007
:020000040000fa
:040058009c05000003
:020000040000fa
:04005c009c050000ff
:020000040000fa
:040060009c050000fb
:020000040000fa
:040064009c050000f7
:020000040000fa
:040068009c050000f3
:020000040000fa
:04006c004c03000041
:020000040000fa
:040070009c050000eb
:020000040000fa
:040074009c050000e7
:020000040000fa
:040078009c050000e3
:020000040000fa
:04007c009c050000df
:020000040000fa
:040080009c050000db
:020000040000fa
:040084009c050000d7
:020000040000fa
:040088009c050000d3
:020000040000fa
:04008c009c050000cf
:020000040000fa
:040090009c050000cb
:020000040000fa
:040094009c050000c7
:020000040000fa
:040098009c050000c3
:020000040000fa
:04009c009c050000bf
:020000040000fa
:0400a0009c050000bb
:020000040000fa
:0400a4009c050000b7
:020000040000fa
:0400a8009c050000b3
:020000040000fa
:0400ac009c050000af
:020000040000fa
:0400b0009c050000ab
:020000040000fa
:0400b400fa0200004c
:020000040000fa
:0400b8009c050000a3
:020000040000fa
:0400bc009c0500009f
:020000040000fa
:0400c0009c0500009b
:020000040000fa
:0400c4009c05000097
:020000040000fa
:0400c8009c05000093
:020000040000fa
:0400cc009c0500008f
:020000040000fa
:0400d0009c0500008b
:020000040000fa
:0400d4009c05000087
:020000040000fa
:0400d8009c05000083
:020000040000fa
:0400dc009c0500007f
:020000040000fa
:0400e0009c0500007b
:020000040000fa
:0400e4009c05000077
:020000040000fa
:0400e8009c05000073
:020000040000fa
:0400ec009c0500006f
:020000040000fa
:0400f0009c0500006b
:020000040000fa
:0400f4009c05000067
:020000040000fa
:0400f8009c05000063
:020000040000fa
:0400fc009c0500005f
:020000040000fa
:040100009c0500005a
:020000040000fa
:040104009c05000056
:020000040000fa
:040108009c05000052
:020000040000fa
:04010c009c0500004e
:020000040000fa
:040110009c0500004a
:020000040000fa
:040114009c05000046
:020000040000fa
:040118009c05000042
:020000040000fa
:04011c009c0500003e
:020000040000fa
:040120009c0500003a
:020000040000fa
:040124009c05000036
:020000040000fa
:040128009c05000032
:020000040000fa
:04012c009c0500002e
:020000040000fa
:040130009c0500002a
:020000040000fa
:040134009c05000026
:020000040000fa
:040138009c05000022
:020000040000fa
:04013c009c0500001e
:020000040000fa
:040140009c0500001a
:020000040000fa
:040144009c05000016
:020000040000fa
:040148009c05000012
:020000040000fa
:04014c009c0500000e
:020000040000fa
:040150009c0500000a
:020000040000fa
:040154009c05000006
:020000040000fa
:040158009c05000002
:020000040000fa
:04015c009c050000fe
:020000040000fa
:040160009c050000fa
:020000040000fa
:040164009c050000f6
:020000040000fa
:040168009c050000f2
:020000040000fa
:04016c009c050000ee
:020000040000fa
:040170009c050000ea
:020000040000fa
:040174009c050000e6
:020000040000fa
:040178009c050000e2
:020000040000fa
:04017c009c050000de
:020000040000fa
:040180009c050000da
:020000040000fa
:040184009c050000d6
:020000040000fa
:040188009c050000d2
:020000040000fa
:04018c009c050000ce
:020000040000fa
:040190009c050000ca
:020000040000fa
:040194009c050000c6
:020000040000fa
:040198009c050000c2
:020000040000fa
:04019c009c050000be
:020000040000fa
:0401a0009c050000ba
:020000040000fa
:0401a4009c050000b6
:020000040000fa
:0401a8009c050000b2
:020000040000fa
:0401ac009c050000ae
:020000040000fa
:0401b0009c050000aa
:020000040000fa
:0401b4009c050000a6
:020000040000fa
:0401b8009c050000a2
:020000040000fa
:0401bc009c0500009e
:020000040000fa
:0401c0009c0500009a
:020000040000fa
:0401c4009c05000096
:020000040000fa
:0401c8009c05000092
:020000040000fa
:0401cc009c0500008e
:020000040000fa
:0401d0009c0500008a
:020000040000fa
:0401d4009c05000086
:020000040000fa
:0401d8009c05000082
:020000040000fa
:0401dc009c0500007e
:020000040000fa
:0401e0009c0500007a
:020000040000fa
:0401e4009c05000076
:020000040000fa
:0401e8009c05000072
:020000040000fa
:0401ec009c0500006e
:020000040000fa
:0401f0009c0500006a
:020000040000fa
:0401f4009c05000066
:020000040000fa
:0401f8009c05000062
:020000040000fa
:0401fc009c0500005e
:020000040000fa
:040200009c05000059
:020000040000fa
:040204009c05000055
:020000040000fa
:040208009c05000051
:020000040000fa
:04020c009c0500004d
:020000040000fa
:040210009c05000049
:020000040000fa
:040214009c05000045
:020000040000fa
:040218009c05000041
:020000040000fa
:04021c009c0500003d
:020000040000fa
:040220009c05000039
:020000040000fa
:040224009c05000035
:020000040000fa
:040228009c05000031
:020000040000fa
:04022c009c0500002d
:020000040000fa
:040230009c05000029
:020000040000fa
:040234009c05000025
:020000040000fa
:040238009c05000021
:020000040000fa
:04023c009c0500001d
:020000040000fa
:040240009c05000019
:020000040000fa
:040244009c05000015
:020000040000fa
:040248009c05000011
:020000040000fa
:04024c009c0500000d
:020000040000fa
:040250009c05000009
:020000040000fa
:040254009c05000005
:020000040000fa
:040258009c05000001
:020000040000fa
:04025c009c050000fd
:020000040000fa
:040260009c050000f9
:020000040000fa
:040264009c050000f5
:020000040000fa
:040268009c050000f1
:020000040000fa
:04026c009c050000ed
:020000040000fa
:040270009c050000e9
:020000040000fa
:040274009c050000e5
:020000040000fa
:040278009c050000e1
:020000040000fa
:04027c009c050000dd
:020000040000fa
:040280009c050000d9
:020000040000fa
:040284009c050000d5
:020000040000fa
:040288009c050000d1
:020000040000fa
:04028c009c050000cd
:020000040000fa
:040290009c050000c9
:020000040000fa
:040294009c050000c5
:020000040000fa
:040298009c050000c1
:020000040000fa
:04029c009c050000bd
:020000040000fa
:0402a0009c050000b9
:020000040000fa
:0402a4009c050000b5
:020000040000fa
:0402a8009c050000b1
:020000040000fa
:0402ac009c050000ad
:020000040000fa
:0402b0009c050000a9
:020000040000fa
:0402b4009c050000a5
:020000040000fa
:0402b8009c050000a1
:020000040000fa
:0402bc009c0500009d
:020000040000fa
:0402c0009c05000099
:020000040000fa
:0402c4009c05000095
:020000040000fa
:0402c8009c05000091
:020000040000fa
:0402cc009c0500008d
:020000040000fa
:0402d0009c05000089
:020000040000fa
:0402d4009c05000085
:020000040000fa
:0402d8009c05000081
:020000040000fa
:0402dc009c0500007d
:020000040000fa
:0402e0009c05000079
:020000040000fa
:0402e4009c05000075
:020000040000fa
:0402e8009c05000071
:020000040000fa
:0402ec009c0500006d
:020000040000fa
:0402f0009c05000069
:020000040000fa
:0402f4009c05000065
:020000040000fa
:0402f8009c05000061
:020000040000fa
:0402fc009c0500005d
:020000040000fa
:040300009c05000058
:020000040000fa
:040304009c05000054
:020000040000fa
:040308009c05000050
:020000040000fa
:04030c009c0500004c
:020000040000fa
:040310009c05000048
:020000040000fa
:100400000f4021000eff24000e01880000000000b4
:10041000000020000000e000020032000001200087
:100420002002880014000700c50107000000e0005a
:1004300003003a0040f221000100200002003700d2
:100440000000200001002000810f70000100320038
:100450000f000700000020000000e0000200320052
:100460000000020000000000fc0502000000000087
:100470000040da000000fe00200020000000e00044
:1004800002003200100020009001880000000600e9
:10049000a1028800800478000000eb001f003700f4
:1004a000e284440054a0b4009905ba00e2844400f8
:1004b00054a0b4009906ba00e284440054a0b400e9
:1004c0000006eb00476fde00fd07b200ae018800ba
:1004d000636ce10003003a000ad801000000eb0061
:1004e0000e003700606ce10008003a00004deb00a0
:1004f0000a05e800020039003420ec000af0a000f0
:100500008b05e900f9ff3e00040037006168e10057
:10051000010032000086eb000b00070019c7ba008b
:100520000e04e0001905ba0003003a000a00e000da
:10053000dbff3a0000000600fe07b200ae028800b2
:100540008a047800f5ff37000cd0a300e20f4d00bd
:100550001c00390089027800354dba000a05e80010
:10056000020039003420ec000af0a0008b05e900fd
:100570000f003200254dba000a05e80002003900dc
:100580003420ec000af0a0008b05e90008003200de
:100590000c00e0000600320015cdba000a05e800a4
:1005a000020039003420ec000af0a0008b05e900bd
:1005b0008984e80054a0b4000b00e000e2ff3a0098
:1005c000000006009902ba00055d78008b05e9007d
:1005d000f7ff3200c82ade00055d78008b05e900d0
:1005e000f3ff32000c00e000f1ff320019ddba0029
:1005f000eeff3700809fbe000000fa00512080000f
:1006000000042000008060000000e00001003200d3
:100610000ac4a9000468a9000080fa004f00be00c7
:10062000004006003600f800c028a9000000eb00da
:10063000390e07003600f8003b0e0700c048a9003d
:1006400010002000340e07003600f800c068a90032
:1006500020002000300e07003600f800c088a900f6
:10066000300020002c0e07003600f800c0a8a900ba
:1006700040002000280e07003600f800c608a90038
:1006800070002000240e07003600f800c488a9007e
:10069000a0002000200e07003600f800809fbe005a
:1006a000829fbe00849fbe00869fbe000000fa00ad
:1006b0000228a900211080000008200000806000ae
:1006c0000000e0000800320004e2a9000830ef005a
:1006d00070808000200090008000eb00010878000e
:1006e0000e30ef000d013700408080008000eb00ed
:1006f000b200200003002000820f5000838f5800ba
:10070000fc003e00000601000b00370039003700f6
:10071000750037009c003700f3003700c800370031
:10072000d9003700f0003700db003700f100370058
:1007300034003700500037000000210020009000f6
:10074000620060000000e000f3003a0000002100b9
:1007500010009000708088000000210010009000c0
:10076000104078000af0b70000002100100090004f
:1007700010009000608088000000210010009000b0
:10078000e600400000002100110098000000210058
:100790009000900040042100808f500003003a0038
:1007a00000002100e1032100110098000000210059
:1007b000a00090000100a10021009800000021008d
:1007c000900090000000210010007800808f500001
:1007d00004003a0000002100a00090000110a000d9
:1007e000210098000002a80020002000408088001e
:1007f000ca0037000022a8002000200040808800a6
:10080000c600370021108000000028000080600032
:100810000000e0000800320000002100604090006d
:100820008040e80000002100614098004000200066
:10083000710a0700b9003700808080008000d10075
:10084000f00f200000806000601088008080800031
:1008500061006000004078000004e0000300320006
:10086000b000200040808800ac003700300020003d
:1008700040808800a9003700211080000000280077
:10088000008060000000e00008003200000021004d
:10089000604090008040e800000021006140980026
:1008a00040002000540a07009c0037000022a800e6
:1008b000808080004800de00e6006000000f20001d
:1008c0000100700080808800808080000000a0000f
:1008d0008080880010c0b30012f0b7002000200014
:1008e000408088008d00370012d0bf00e14f5000db
:1008f0000a0032006080800010007800808088004c
:100900006080800020009000a080880060808000cf
:100910002040900016f0b700010037001270ef0081
:1009200081808000f00f2000808f50000900360089
:10093000808080004800de00e6006000000f20009c
:100940000100700060108800a00020004080880036
:1009500072003700808080006010880080808000f6
:1009600061006000004078000004e00003003200f5
:1009700050002000408088006800370030002000d0
:1009800040808800650037002110800000002800aa
:10099000008060000000e00009003200000021003b
:1009a000604090008040e800000021006140980015
:1009b00005e2a900500020000f0a07005700370089
:1009c00016d0bf008080fb008100e900cf08de0068
:1009d000814078000040e90016f0b7000104e00013
:1009e0001000320060808000660040006080880057
:1009f0000ad0bf000040e9000af0b7000ad0bf00eb
:100a00000004e00003003a0020002000fa0907007b
:100a1000420037000022a80020002000408088000b
:100a20003e003700a0808000904078008180fb006d
:100a3000611088000000e800a080880037003700bf
:100a40002110800000002800008060000000e0000d
:100a50000900320000002100604090008040e80062
:100a6000000021006140980040002000e2090700da
:100a700005e2a900290037000062a80080002000dc
:100a800040808800250037008000200040808800da
:100a90000062a80021003700a08080007110800053
:100aa00081407800014878000000e800a0808800bc
:100ab00016d0bf000040e90016f0b70016d0bf0006
:100ac0000004e0000400320000a2a9006000200041
:100ad000408088000200370000a2a800b509070086
:100ae0000082a8000d00370020002000c209070086
:100af0000a00370000002100604090008040e800bc
:100b0000000021006140980060002000ba09070041
:100b10000000000001003700000000000080fa0023
:100b20004f03be004f02be004f01be004f00be008b
:100b30003600f900004006000040da000000fe0028
:040b400000000500ac
:020000040000fa
:100b44000000fa002023a8000080fa00000006003c
:100b54000000fa002023a9000080fa00000006002b
:100b64000000fa00001880000080fa00000006006f
:100b74000000fa0000198000004078006140600025
:100b84000080fb0000f0a7000000ea000000ea007b
:100b94004f00de00004078000080fa0000000600ec
:100ba4000200fa00000f78001e0078000040780070
:100bb400f043b2008080fb00f0032000008060005e
:100bc4004219800001fc2f008100610001007000c7
:100bd400401988000080fa00000006000000fa00b6
:100be400c3e8a80000000000000000000080fa0034
:100bf400000006006000fa00840c0700f7ff0700fd
:100c04000000eb00000f78000000eb00000f7800fc
:100c1400010037001e0fe800e00f20009e0078005e
:100c2400808f5000fbff340015eea90019eea900d7
:100c3400b07080004f00de00004078000080fb00b0
:100c4400100798000600370019eea900b070800064
:100c54004f00de00004078000080fb001007980081
:100c64001e0090000000e000f7ff3a0015cea90036
:100c740019cea900b07080004e00de006140600013
:100c84000080fb00200798000600370019cea90059
:100c9400b07080004e00de00614060000080fb0008
:100ca400200798002e0090000000e000f7ff3a00b3
:100cb4000000eb00000f7800010037001e0fe80071
:100cc400e00f20009e007800808f5000fbff34006e
:100cd40015eea90019eea800e00220000e00400065
:100ce400000f9800e00320000e004000100f980051
:100cf40020002000200f98006000b800300f9800fa
:100d0400410f98000040eb00604798000040eb0062
:100d1400704798000000eb0040079800b5050700f5
:100d2400030037000e089000f5050700604798009f
:100d34006e4090000004a2000004e000f9ff3a00b5
:100d44007e1190008e199000320f9800430f980086
:100d54006000b80070279800012f9800e00420007c
:100d64000e004000500f98006000b800102f98004b
:100d7400212f9800200520000e004000600f9800ed
:100d84000040eb0060d79800600520000e00400092
:100d9400700f980010c0b300006798000000eb00cb
:100da400101798008e0178007305b0000200090046
:100db4008059eb00700520000e00400020179800b9
:100dc40010002000600798008e007800a105b00094
:100dd400000009008018eb008058eb00a0052000fb
:100de4000e004000301798000e017800d205b000c4
:100df400020009000059eb00d00520000e0040005d
:100e0400401798000000eb00700798003e0890001f
:100e1400ce0890000204200003002000820f50003e
:100e2400838f5800cf013200020420000300200009
:100e3400820f5000838f580025003e0002022000dc
:100e440003002000820f5000838f58000b013200f2
:100e54000202200003002000820f5000838f5800fc
:100e64000b003e00d200200003002000820f50003f
:100e7400838f58009f0332000201200003002000ea
:100e8400820f5000838f5800bd0032007104370078
:100e94000203200003002000820f5000838f5800bb
:100ea400680132004203200003002000820f50003a
:100eb400838f5800f3013200220220000300200037
:100ec400820f5000838f58002b01320061043700d9
:100ed400e20d200003002000820f5000838f580091
:100ee400ee023200e20d200003002000820f5000c9
:100ef400838f580010003e00b20a20000300200037
:100f0400820f5000838f58004e023200c20b200023
:100f140003002000820f5000838f5800b202320079
:100f24000205200003002000820f5000838f580028
:100f34002902320047043700321220000300200047
:100f4400820f5000838f58000b003200d23a2000e9
:100f540003002000820f5000838f5800af0332003b
:100f6400f20e200003002000820f5000838f5800ef
:100f74003303320037043700b07080004800de00cd
:100f8400614060000080fb005007980006003700b5
:100f9400190ea900b07080004800de0061406000b6
:100fa4000080fb00500798005e0090000000e00005
:100fb400f7ff3a007e099000110020006e089000af
:100fc400d509070010179800b07080004800de00b3
:100fd400614060000080fb00500798000600370065
:100fe400190ea800b07080004800de006140600067
:100ff4000080fb00500798005e009000e10f500055
:10100400f7ff3a000000eb00000f78000100370002
:101014001e0fe800f07022009e007800808f5000c0
:10102400fbff3400b07080004800de0061406000c7
:101034000080fb005007980006003700190ea90035
:10104400b07080004800de00614060000080fb005a
:10105400500798005e0090000000e000f7ff3a009f
:101064005e099000410020006e089000aa09070064
:1010740010179800eec99000236f9800fec89000e6
:10108400316f98000ed19000426f98009ed190006d
:10109400536f9800b07080004800de00614060002b
:1010a4000080fb005007980006003700190ea800c6
:1010b400b07080004800de00614060000080fb00ea
:1010c400500798005e009000e10f5000f7ff3a00cf
:1010d4006ec890000080fb004600de0000679800a8
:1010e4001032200001002000701f98000127980092
:1010f40040c0b30020c7980010c0b30030c79800a8
:1011040080c0b30040c798008e60900051c798001b
:101114002e69900062c79800be69900073c798005a
:10112400ce68900001cf98005e69900012cf9800bd
:101134000040eb0020cf98000040eb0030cf980037
:101144000040eb0040cf98009d04070004003700e6
:101154009e0890002e089000b30407007047980082
:101164007e4090000004a2000004e000f8ff3a0072
:101174006000b800300f9800410f9800b5033700a5
:1011840015eea90019eea900b07080004f00de0032
:10119400004078000080fb0010079800060037002c
:1011a40019eea900b07080004f00de000040780006
:1011b4000080fb00100798001e0090000000e00073
:1011c400f7ff3a001001200001002000701f980072
:1011d4000127980040c0b30020c7980010c0b30096
:1011e40030c7980080c0b30040c798001e0090002c
:1011f4004800de000040780050c798001e009000b0
:101204000040780060c798000040eb0070c7980069
:101214001e0090000040780000cf98000040eb00d2
:1012240010cf98001e0090000040780020cf980056
:101234000040eb0030cf98001e0090000040780082
:1012440040cf98005e040700040037009e08900019
:101254002e08900074040700704798007e409000a8
:101264000004a2000004e000f8ff3a006000b800a7
:10127400300f9800410f98007603370015eea9004f
:1012840019eea800b07080004f00de000040780026
:101294000080fb00100798000600370019eea80034
:1012a400b07080004f00de00004078000080fb003a
:1012b400100798001e009000e10f5000f7ff3a005d
:1012c4001002200001002000701f980001279800e0
:1012d40040c0b30020c7980010c0b30030c79800c6
:1012e40080c0b30040c798001e0090004800de0094
:1012f4000040780050c798001e009000004078001d
:1013040060c798000040eb0070c798001e00900072
:101314000040780000cf98000040eb0010cf980008
:101324001e0090000040780020cf98000040eb00a1
:1013340030cf98001e0090000040780040cf980005
:101344001f040700040037009e0890002e08900038
:1013540035040700704798007e4090000004a20006
:101364000004e000f8ff3a006000b800300f980075
:10137400410f980037033700b07080004f00de0043
:10138400004078000080fb00100798000022200035
:1013940001002000701f98000127980040c0b3008e
:1013a40020c7980010c0b30030c7980080c0b300b5
:1013b40040c798001e0090004800de0000407800fe
:1013c40050c798001e0090000040780060c7980045
:1013d4000040eb0070c798001e00900000407800a9
:1013e40000cf98000040eb0010cf98001e00900042
:1013f4000040780020cf98000040eb0030cf9800e8
:101404001e0090000040780040cf9800ec030700d5
:10141400040037009e0890002e0890000204070084
:10142400704798007e4090000004a2000004e00091
:10143400f8ff3a006000b800300f9800410f9800a0
:101444000403370015cea90019cea900b07080009e
:101454004e00de00614060000080fb002007980021
:101464000d00370019cea900b07080004e00de00d8
:10147400614060000080fb00200798004e0090004f
:101484000000e80040079800ce009000f00f200014
:10149400808f5000040032002e0090000000e00015
:1014a400f0ff3a00010037000000000010032000a4
:1014b40001002000701f98000127980040c0b3006d
:1014c40020c7980010c0b30030c7980080c0b30094
:1014d40040c798002e0090004800de0000407800cd
:1014e40050c798002e0090000040780060c7980014
:1014f4000040eb0070c798002e0090000040780078
:1015040000cf98000040eb0010cf98002e00900010
:101514000040780020cf98000040eb0030cf9800c6
:101524002e0090000040780040cf9800a4030700ec
:10153400040037009e0890002e089000ba030700ac
:10154400704798007e4090000004a2000004e00070
:10155400f8ff3a006000b800300f9800410f98007f
:10156400bc02370015cea90019cea800b0708000c7
:101574004e00de00614060000080fb002007980000
:101584000d00370019cea800b07080004e00de00b8
:10159400614060000080fb00200798004e0090002e
:1015a4000000e80040079800ce009000f00f2000f3
:1015b400808f5000040032002e009000e10f500094
:1015c400f0ff3a0001003700000000001004200082
:1015d40001002000701f98000127980040c0b3004c
:1015e40020c7980010c0b30030c7980080c0b30073
:1015f40040c798002e0090004800de0000407800ac
:1016040050c798002e0090000040780060c79800f2
:101614000040eb0070c798002e0090000040780056
:1016240000cf98000040eb0010cf98002e009000ef
:101634000040780020cf98000040eb0030cf9800a5
:101644002e0090000040780040cf98005c03070013
:10165400040037009e0890002e08900072030700d3
:10166400704798007e4090000004a2000004e0004f
:10167400f8ff3a006000b800300f9800410f98005e
:1016840074023700b07080004e00de0061406000dc
:101694000080fb00200798008001200040fd070027
:1016a40027fd07000000eb00000f78000100370061
:1016b4001e0fe800301f20009e007800808f50002d
:1016c400fbff340022fd070029fd07000004a200ef
:1016d4000004e0000a0032000200370020fd070089
:1016e4007007980022fd07000004a2000004e00037
:1016f400faff3a001afd070070079800050037004a
:101704001bfd07000004e0000200320014fd070086
:10171400700798005003200001002000701f9800fb
:101724000127980040c0b30020c7980010c0b30040
:1017340030c7980080c0b30040c798002e009000c6
:101744004800de000040780050c798002e0090004a
:101754000040780060c798000040eb0070c7980014
:101764007e0090004800de000040780000cf980022
:101774007e0090000040780010cf98000040eb00fd
:1017840020cf98007e0090004800de0000407800e2
:1017940030cf98007e0090000040780040cf980041
:1017a40007030700040037009e0890002e089000ed
:1017b4001d030700704798007e4090000004a200bb
:1017c4000004e000f8ff3a006000b800300f980011
:1017d400410f98001f02370000c3b30070d7980070
:1017e4005e70900000df98006e70900010df98002b
:1017f4000b0037002e11900031c0b30030c7b30086
:10180400340507004e0090000000e80040079800ef
:10181400ce009000f00f2000808f500004003200b2
:101824006e009000e20f5000f2ff3a000100370012
:10183400000000006000b800300f9800410f9800cd
:101844000402370000c6b30020df98005e709000e9
:1018540030df98006e70900040df98000b00370076
:101864003e11900031c0b30000c6b3001905070053
:101874004e0090000000e80040079800ce00900061
:10188400f00f2000808f5000040032006e009000a2
:10189400e20f5000f2ff3a000100370000000000a0
:1018a40010002000600798000000eb00400798003b
:1018b4000000eb00000f7800010037001e0fe80065
:1018c400703e20009e007800808f5000fbff3400a3
:1018d4000c0037004e11900031c0b30000c6b300b5
:1018e40030050700600798004e0090000000e800f3
:1018f40040079800ce009000f00f2000808f500029
:10190400040032006e009000e20f5000f1ff3a0034
:101914000100370000000000a00b2000010020009f
:10192400701f98000127980040c0b30020c798009a
:1019340010c0b30030c7980080c0b30040c79800ff
:101944005ed8900050c798006ed8900060c7980089
:101954007ed8900070c798000040eb0000cf98003c
:101964000040eb0010cf98000040eb0020cf98001f
:101974000040eb0030cf98000040eb0040cf9800cf
:101984008f020700040037009e0890002e08900084
:10199400a5020700704798007e4090000004a20052
:1019a4000004e000f8ff3a006000b800300f98002f
:1019b400410f9800a70137004e11900031c0b300c9
:1019c40000c6b300f7040700600798004e009000bb
:1019d4000000e80040079800ce009000f00f2000bf
:1019e400808f5000040032006e009000e20f50001f
:1019f400f1ff3a000100370000000000b00c2000a5
:101a040001002000701f98000127980040c0b30017
:101a140020c7980010c0b30030c7980080c0b3003e
:101a240040c798005ed8900050c798006ed89000c8
:101a340060c798007ed8900070c798000040eb0003
:101a440000cf98000040eb0010cf98000040eb005e
:101a540020cf98000040eb0030cf98000040eb000e
:101a640040cf980056020700040037009e089000fb
:101a74002e0890006c020700704798007e4090008a
:101a84000004a2000004e000f8ff3a006000b8007f
:101a9400300f9800410f98006e01370000c6b30064
:101aa40020df98005e70900030df98006e70900028
:101ab40040df98000b0037003e11900031c0b300a6
:101ac40010c6b300830407004e0090000000e80035
:101ad40040079800ce009000f00f2000808f500047
:101ae400040032006e009000e20f5000f2ff3a0052
:101af400010037000000000010002000600798007b
:101b04000000eb00400798000000eb00000f780095
:101b1400010037001e0fe800703e20009e00780090
:101b2400808f5000fbff34000c0037004e119000f2
:101b340031c0b30010c6b3009a04070060079800d0
:101b44004e0090000000e80040079800ce0090008e
:101b5400f00f2000808f5000040032006e009000cf
:101b6400e20f5000f1ff3a000100370000000000ce
:101b7400d00e200001002000701f9800012798005b
:101b840040c0b30020c7980010c0b30030c798000d
:101b940080c0b30040c798005ed8900050c798003a
:101ba4006ed8900060c798007ed8900070c79800e7
:101bb4000040eb0000cf98000040eb0010cf9800ed
:101bc4000040eb0020cf98000040eb0030cf98009d
:101bd4000040eb0040cf9800f901070004003700f3
:101be4009e0890002e0890000f020700704798008e
:101bf4007e4090000004a2000004e000f8ff3a00d8
:101c04006000b800300f9800410f980011013700b0
:101c14004e11900031c0b30010c6b3006104070038
:101c2400600798004e0090000000e800400798000c
:101c3400ce009000f00f2000808f5000040032008e
:101c44006e009000e20f5000f1ff3a0001003700ef
:101c540000000000e00f200001002000701f980029
:101c64000127980040c0b30020c7980010c0b300fb
:101c740030c7980080c0b30040c798005ed8900079
:101c840050c798006ed8900060c798007ed8900026
:101c940070c798000040eb0000cf98000040eb00b4
:101ca40010cf98000040eb0020cf98000040eb00dc
:101cb40030cf98000040eb0040cf9800c0010700ef
:101cc400040037009e0890002e089000d6010700fb
:101cd400704798007e4090000004a2000004e000d9
:101ce400f8ff3a006000b800300f9800410f9800e8
:101cf400d800370010002000a9fb070090fb070064
:101d04000000eb00000f7800010037001e0fe80010
:101d1400301f20009e007800808f5000fbff3400ad
:101d24008bfb070092fb07000004a2000004e00004
:101d34000a0032000200370089fb07007007980090
:101d44008bfb07000004a2000004e000faff3a0045
:101d540083fb0700700798000500370084fb070029
:101d64000004e000020032007dfb070070079800c9
:101d7400000d200001002000701f9800012798002a
:101d840040c0b30020c7980010c0b30030c798000b
:101d940080c0b30040c798007e0090004800de0079
:101da4000040780050c798007e0090000040780002
:101db40060c798000040eb0070c798000040eb003b
:101dc40000cf98000040eb0010cf98000040eb00db
:101dd40020cf98000040eb0030cf98000040eb008b
:101de40040cf980076010700040037009e08900059
:101df4002e0890008c010700704798007e409000e8
:101e04000004a2000004e000f8ff3a006000b800fb
:101e1400300f9800410f98008e003700a03d20003d
:101e240001002000701f98000127980040c0b300f3
:101e340020c7980010c0b30030c7980080c0b3001a
:101e440040c798000000eb0055fb07003cfb07006f
:101e54000000eb00000f7800010037001e0fe800bf
:101e6400301f20009e007800808f5000fbff34005c
:101e740037fb07003efb07000004a2000004e0005b
:101e84000a0032000200370035fb07007007980093
:101e940037fb07000004a2000004e000faff3a0048
:101ea4002ffb0700700798000500370030fb070080
:101eb4000004e0000200320029fb070070079800cc
:101ec4007e0090004800de000040780050c7980073
:101ed4007e0090000040780060c798000040eb004e
:101ee40070c79800200020002dfb070014fb07009a
:101ef4000000eb00000f7800010037001e0fe8001f
:101f0400301f20009e007800808f5000fbff3400bb
:101f14000ffb070016fb07000004a2000004e0000a
:101f24000a003200020037000dfb0700700798001a
:101f34000ffb07000004a2000004e000faff3a00cf
:101f440007fb0700700798000500370008fb07002f
:101f54000004e0000200320001fb07007007980053
:101f64007e0090004800de000040780000cf98001a
:101f74007e0090000040780010cf98000040eb00f5
:101f840020cf98003000200005fb0700ecfa070082
:101f94000000eb00000f7800010037001e0fe8007e
:101fa400301f20009e007800808f5000fbff34001b
:101fb400e7fa0700eefa07000004a2000004e000bc
:101fc4000a00320002003700e5fa070070079800a3
:101fd400e7fa07000004a2000004e000faff3a0058
:101fe400dffa07007007980005003700e0fa0700e1
:101ff4000004e00002003200d9fa070070079800dc
:102004007e0090004800de000040780030cf980049
:102014007e0090000040780040cf9800e800070060
:10202400040037009e0890002e089000fe00070070
:10203400704798007e4090000004a2000004e00075
:10204400f8ff3a006000b800300f9800410f980084
:10205400000000000000eb00000f780001003700d2
:102064001e0fe800703e20009e007800808f500014
:10207400fbff34002024ef0017fb37000200fa00b6
:10208400000f78001e007800e10f500009003200b4
:10209400e10f500005003900e20f50000700320044
:1020a400e30f5000070032000800370001eba800de
:1020b4000600370011eba8000400370021eba8004c
:1020c4000200370031eba800000000000080fa0095
:1020d400000006000400fa00000f780011079800c1
:1020e4001e007800e10f50000b003200e10f500099
:1020f40005003900e20f50000b003200e30f5000de
:102104000d003200100037009e0090002158880016
:10211400062bef000c0037009e009000a1588800a9
:10212400162bef00080037009e009000215988000c
:10213400262bef00040037009e009000a159880070
:10214400362bef00000000000080fa0000000600bb
:102154000400fa00000f7800110798001e007800b0
:10216400e10f50000a003200e10f50000500390071
:10217400e20f500009003200e30f50000a00320061
:102184000c0037009e009000615888000900370059
:102194009e009000e1588800060037009e009000e1
:1021a40061598800030037009e009000e1598800bf
:1021b400000000000080fa00000006000000fa00a1
:1021c4002468a9000c24ef0001208000f08f2f0068
:1021d4000080600000a0a000002088000000000033
:1021e40001208000000e2000808060000008200094
:1021f400808f5000faff3a001024ef00801920006d
:102204009020880010002c003020880070002000ee
:10221400a02088000024ef000004a800c120800052
:10222400c0ff2f0000806000c02088008021800053
:102234007f00600080218800a02180007f00600072
:10224400a0218800c02180007f006000c021880098
:1022540081218000c0ff2f00008060008021880061
:10226400a1218000c0ff2f0000806000a021880011
:10227400c1218000c0ff2f0000806000c0218800c1
:102284003224ef003624ef003a24ef003064a80033
:102294003464a9003864a9004064a90000228000c5
:1022a400ff00600000462200010070000022880048
:1022b40001228000c0ff2f000080600000228800ff
:1022c4000121800000ff2f00008060000000a000ba
:1022d400002188000004a90030e4a80031e4a9002a
:1022e40032e4a90033e4a90034e4a90035e4a900e8
:1022f40036e4a90037e4a90081218000c0ff2f0043
:10230400008060008021880081218000f0cf2f00b0
:10231400008060008021880091218000c0ff2f0090
:10232400008060009021880091218000f0cf2f0070
:102334000080600090218800a1218000c0ff2f0050
:1023440000806000a0218800a1218000f0cf2f0030
:1023540000806000a0218800b1218000c0ff2f0010
:1023640000806000b0218800b1218000f0cf2f00f0
:1023740000806000b02188002024ef002224ef00b8
:102384002824ef002a24ef000a24a9000120800059
:10239400f08f2f0000806000002088000000000003
:1023a40001208000000e2000008060000000e0009a
:1023b400fbff3a002468a8000080fa000000060031
:1023c4000000fa0020442000800078000000eb00a8
:1023d4005fff070000202100800078000000eb0070
:1023e4003cff07000000eb0024ff07000080fa0018
:1023f400000006000000fa0000442000800078007d
:102404001000200052ff0700002021008000780007
:10241400100020002fff07001000200017ff070006
:102424000080fa00000006000a00fa003007980055
:102434004107980000432000000f78000040eb00a3
:10244400404798000000eb00100798002600370072
:102454001e0078009040780000c8b30000c06000ff
:102464000004e0001c0032001e00780010407800d8
:10247400684060000004e00017003a0001202100d9
:102484001e0090004400dd0000804000ce0090005b
:10249400a30107003e00900000407800e340600084
:1024a4001e007800e3c0600090417800c2cfb30002
:1024b40002c1610081407100014878001e0078006b
:1024c400904078000134a0000148780010c0b300a7
:1024d40040479800070037001e0fe8001e009000d8
:1024e4000000e800100798001e0090000000e000c3
:1024f400d7ff32004e4090000080fa000000060032
:102504000800fa00300798000040eb0020479800cc
:1025140001218000210798002e0090000000e000b7
:10252400280032000000eb00000f78002000370084
:10253400c0808000ae0090000008de0061006000f2
:10254400004078000004e0000e003200c0808000eb
:1025540000407800be0090006f000700c08080003b
:10256400110020000008dd000080ea0080007800ef
:1025740000218000008060000021880010c0b300aa
:1025840020479800c08080000000e800c0808800d8
:10259400c0808000ef0f5000010036001830ef00bb
:1025a4002e4090000004e00005003a001e0fe800f1
:1025b4001e007800ef0f5000ddff360001003700e9
:1025c400000000002e4090000080fa000000060089
:1025d4000000fa00502080004d00de0061406000e1
:1025e4000080fb0000f0a7000000ea000000ea0001
:1025f4004f00de00004078000080fa000000060072
:102604000000fa00502080004b00de0061406000b2
:102614000080fb0000f0a7000000ea000000ea00d0
:102624004f00de00004078000080fa000000060041
:102634000000fa00502080004c00de006140600081
:102644000080fb0000f0a7000000ea000000ea00a0
:102654004f00de00004078000080fa000000060011
:102664000600fa000000eb00000f78000121800052
:10267400210798002e0090000000e00011003200b5
:102684000000eb00100798000b0037001e009000bc
:10269400ae0090000008de00610060000040780099
:1026a4000004e000010032001e0fe8001e0090004c
:1026b4000000e800100798001e009000ef0f500083
:1026c400f2ff36001e007800004078000080fa0017
:1026d400000006000000fa000ac4a9000cc4a80007
:1026e40001208000f08f2f00008060000080a00097
:1026f400002088000000000001208000000e20005f
:102704008080600000022000808f5000faff3a00b1
:102714000080fa00000006000c00fa00004f980048
:10272400510798000000eb00100798000000eb0030
:10273400000f78006000b800200798003107980067
:102744000e4890000080fb00c400dd000020210042
:1027540000804000100078006100600010079800bd
:102764001e0090000000e00017003a000e489000a0
:102774000080fb00c400dd00002021000080400038
:1027840090007800c0ff2100008060004200de005d
:102794008000eb005e0190000089be005e009000a6
:1027a40041c0b300414098000e4890000080fb00f7
:1027b400c400dd00002021000080400010007800eb
:1027c400620f60006b0037000e4890000080fb0031
:1027d400c400dd00002021000080400010007800cb
:1027e4006101b800c0ff210001002000020278004e
:1027f4000301780080017800010078000302620080
:10280400000061008000eb00c000dd00000020003b
:102814000001be006120b8000001710081817100d7
:1028240022079800330798002e009000be00900005
:10283400c000dd00000020005e0190000089be00a1
:102844005e00900010027800900290000e48900004
:102854000080fb004400dd008080e80000202100af
:1028640000804000100078006101b800f0ff2000f3
:102874000100200002037800030178008001780041
:102884000100780003036300000061008000eb0096
:10289400c000dd00000020000001be006130b8006f
:1028a40000017100818171004618dd00ca10de004c
:1028b400810070004610dd0004004000858048005f
:1028c4005e0190000089be005e0090001002780056
:1028d400900290000e4890000080fb004400dd0050
:1028e400e400400000202100008040001000780037
:1028f4004a00de006101b800f0ff2f000100200053
:102904000203780003017800800178000100780058
:1029140003036300000061008000eb00c000dd00e1
:10292400000020000001be006130b8000001710009
:102934008181710004004100858049005e0190009e
:102944000089be005e00900031c0b3004140980091
:102954000e4890000080fb004400dd00e4004000cd
:10296400002021000080400090007800002020001a
:10297400008f60001e0078000000e00004003200b8
:102984005e00900021c0b3005140980062003700ff
:102994005e00900011c0b300514098000e489000b2
:1029a4000080fb004400dd00e60040000020210020
:1029b4000080400010007800804078005e009000a5
:1029c400714098000e4890000080fb004400dd0038
:1029d400e600400000202100008040001000780044
:1029e4004800de00804078005e00900001489800b6
:1029f4000e4890000080fb004400dd00e800400029
:102a04000020210000804000100078008040780001
:102a14005e009000114898000e4890000080fb0072
:102a24004400dd00e8004000002021000080400058
:102a3400100078004800de00804078005e009000be
:102a4400214898000e4890000080fb004400dd00ff
:102a5400ea004000002021000080400010007800bf
:102a6400804078005e009000314898000e48900045
:102a74000080fb004400dd00ea004000002021004b
:102a840000804000100078004800de00804078009c
:102a94005e009000414898000e4890000080fb00c2
:102aa4004400dd00ec0040000020210000804000d4
:102ab40010007800804078005e0090005148980033
:102ac4000e4890000080fb004400dd00ec00400054
:102ad4000020210000804000100078004800de0043
:102ae400804078005e009000614898000e48900095
:102af4000080fb004400dd00e400400000202100d1
:102b0400008040001000780000407800ef40600032
:102b14005e009000614098000080fa00000006000a
:102b24000400fa00000f7800110798001e009000be
:102b340040409000e44f500014003a001e00900002
:102b4400900090001000780080007800f07f200052
:102b540000806000c200dd001e00780001087800db
:102b64001e80e8008000eb00010878009e007800d9
:102b7400648040009e009000e14090008180fb0052
:102b8400ef80600001087800240037001e009000e8
:102b940090009000100078004008de00800078006b
:102ba400c0ff210000806000800078000100a000c8
:102bb4001e007800010878001e81e8001e009000c5
:102bc4009000900010007800ca09dd004600de0085
:102bd40000807100c608de0080007800f0ff20004d
:102be40000806000000978009e0078006481400045
:102bf4001e009000604090000080fb00ef01600028
:102c04001e009000900090001000780000007800f2
:102c14004a00dd0000804100000978009e01780030
:102c2400668041009e009000814890008180fb00f6
:102c34004809dd009e009000f14090008180fb0077
:102c440081004100010878009e00780068804000ff
:102c54009e009000a14890008180fb004809dd009f
:102c64009e009000914890008180fb00810041000b
:102c7400010878009e0178006a8041009e0090005f
:102c8400c14890008180fb004809dd009e0090004f
:102c9400b14890008180fb00810041000108780068
:102ca4009e0078006c8040009e009000e1489000f7
:102cb4008180fb004809dd009e009000d14890000f
:102cc4008180fb0081004100010878000080fa0047
:102cd400000006000a00fa00604798007147980057
:102ce400420798000000eb00000f78000000eb00a2
:102cf40010079800100020002007980021003700da
:102d04006e4090000080fb00e400470081017800e1
:102d140000017800fe4090004e0090004201070040
:102d2400070037009e009000f00f2000808f5000b5
:102d3400070032001e0090000000e8001007980011
:102d44002e009000e10f5000f6ff32000100370022
:102d5400000000001e007800e20f50000d00320059
:102d64001e0fe8002e0090000000e0000300320077
:102d74002e009000e50f500002003a002e00900053
:102d8400060037002e009000e20f5000dcff3a00ee
:102d940001003700000000002e0090000080fa00bf
:102da400000006000a00fa00604798007147980086
:102db400420798000000eb00000f78000000eb00d1
:102dc4001007980010002000200798002100370009
:102dd4006e4090000080fb00e40047008101780011
:102de40000017800fe4090004e009000270107008b
:102df400070037009e009000f00f2000808f5000e5
:102e0400070032001e0090000000e8001007980040
:102e14002e009000e10f5000f6ff32000100370051
:102e2400000000001e007800e20f50000d00320088
:102e34001e0fe8002e0090000000e00003003200a6
:102e44002e009000e50f500002003a002e00900082
:102e5400060037002e009000e20f5000dcff3a001d
:102e640001003700000000002e0090000080fa00ee
:102e7400000006000c00fa00500798000000eb0068
:102e8400000f78000000eb0010079800e0c4b300c6
:102e94007047980010002000400798004e009000f2
:102ea400e20f500024003200e800470067004700aa
:102eb400810178007202200011c0b300da0007001b
:102ec400070037009e009000f00f2000808f500014
:102ed400070032001e0090000000e8001007980070
:102ee4004e009000e10f5000f6ff32000100370061
:102ef400000000001e007800e20f500003003a00ba
:102f040030c0b300604798000b0037001e0fe80084
:102f14004e0090000000e000030032004e009000dc
:102f2400e50f500003003a0030c0b300604798003a
:102f340001003700000000000000eb0020079800ab
:102f4400030037002e0090000000e80020079800de
:102f5400ae00900010032000808f5000f9ff340071
:102f64004e009000e20f50002f003a000000eb00ea
:102f7400000f78000000eb00100798001e003700d7
:102f840068004700800178007202200041c0b3004d
:102f94005e009000bd000700070037009e0090000f
:102fa400f00f2000808f5000070032001e009000b8
:102fb4000000e800100798004e009000e10f500058
:102fc400f6ff320001003700000000001e00780008
:102fd400e20f50000c0032001e0fe8004e0090007b
:102fe400e20f5000090032002010800070006000e1
:102ff4000000e00005003a004e0090000000e000f0
:10300400dfff3a0001003700000000005e0090007e
:10301400104078000080fb004600de006047980006
:103024006e4090000300370030c0b3006047980042
:103034006e4090000080fa00000006000c00fa00c8
:1030440010c0b300404798004e4090000004e000d8
:103054000300320000c6b300504798000200370056
:1030640000c7b300504798000000eb00000f780041
:103074000000eb001007980000c6b30060479800fa
:103084000040eb00704798000040eb00004f9800b0
:1030940010002000500798001a003700ea0047008b
:1030a40066004700810178003207200031c0b30078
:1030b4005d00070005003700f00f20009e00780037
:1030c400808f5000050032001e0fe8005e00900063
:1030d400e10f5000f8ff320001003700000000004b
:1030e4001e009000e20f50000a0032001e00900003
:1030f4000000e800100798005e0090000000e00067
:10310400060032005e009000e20f5000e3ff3a0038
:103114000300370000000000010037000000000039
:103124000080fa00000006000000fa000000210000
:10313400e10321001100980000002100e1032100b7
:103144000108780000002100a00090000110a000f8
:103154002100980000002100a00090000100a100bf
:1031640021009800000021008040eb00614098009d
:103174002001200050108800000028000010880062
:103184000422ef000228a9002228a8000080fa00e7
:10319400000006000200fa0000002100e040900058
:1031a400014f78001e4078000080fa0000000600fd
:1031b4000000fa00608080006600400060808800a3
:1031c4000ad0bf000040e9000af0b7000ad0bf00ef
:1031d4000004e00003003a00400020004080880022
:1031e4000200370010002000408088000080fa00b0
:1031f400000006000200fa00000f78000042a80058
:1032040070808000200090000000e0000300320085
:1032140070808000200090001e0878000830ef00c5
:103224000080fa00000006000800fa00000f780091
:1032340021479800220798003307980000002100d6
:1032440020009000610060000000e0000a003a00e5
:10325400ae0190002e4190009e007800a004210051
:10326400770007003e019000a104210010c0b300c4
:103274001f000700030037003e0090008000eb00b1
:10328400010878000080fa00000006000800fa0037
:10329400000f780021479800220798003307980010
:1032a4000000210020009000610060000000e000a8
:1032b4000a003a00ae0190002e4190009e00780072
:1032c40040042100460007003e0190004104210013
:1032d40010c0b30006000700030037003e00900052
:1032e4008000eb00010878000080fa00000006006e
:1032f4000600fa00004f7800110798002207980092
:103304000000210020009000610060000000e00047
:103314002e003a002e0090001100200001087800d1
:1033240000002100100078009e0090001100980019
:1033340000002100100078001e48780000002100e1
:1033440010007800ae0090002100980000002100d9
:1033540010007800e6004000000021000108780019
:10336400000021009000780040042100808f50006c
:1033740003003a0000002100e10321000108780065
:1033840000002100a00090000110a100210098007d
:10339400000021009000900000002100100078003f
:1033a400808f500004003a0000002100a00090002b
:1033b4000100a00021009800408080000000e0008f
:1033c40005003a000228a800030037002e009000f0
:1033d4008000eb00010878000080fa00000006007d
:1033e4000800fa00000f780011079800424798007f
:1033f400330798003e0090000000400080007800f1
:103404001e007800010878001e0078001000780083
:10341400800078000100a0001e00780001087800f8
:103424001e007800ce409000214098001e007800d5
:103434009e009000210098000080fa000000060021
:103444000800fa00000f780011079800424798001e
:10345400330798003e009000000040008000780090
:103464001e007800010878001e007800ce4090000d
:10347400214098001e0078009e00900021009800d2
:103484000080fa00000006000000fa00000021009d
:10349400200090006200600000f0a7000000ea0035
:1034a4000000ea004f00de00004078000080fa00cf
:1034b400000006000000fa00000021002000900037
:1034c4006100600000f0a7000000ea000000ea00cc
:1034d4004f00de00004078000080fa000000060083
:1034e4000000fa00002220001013880010002000c1
:1034f40020138800c0002800001388000080fa0010
:10350400000006000400fa00000f7800110798007c
:103514000000000000138000620060000000e00072
:10352400fcff3a001e007800104078000080fb0089
:1035340040138800000000000113800000022000f6
:10354400008060000000e000fbff3a0040138000b0
:10355400804078001e009000014878000080fa0046
:10356400000006001800fa00100f9800210f9800c0
:10357400320f98000000eb00000f78000000eb0011
:10358400100798000000eb00700798000000eb00a3
:10359400000f980010002000600798001e0890009b
:1035a4000000e00005003a000000eb00500798001e
:1035b400700047002007980004003700ee009000d8
:1035c400510798009e089000210798003e0890003b
:1035d4000000e00005003a000000eb0040079800fe
:1035e4006e0047003007980005003700ee00900099
:1035f40041079800be0890003107980000000000c1
:1036040000138000620060000000e000fcff3a004c
:103614001d00370000138000620060000000e0001d
:1036240009003a002e009000104078000080fb0052
:1036340040138800ae0090005e00900000804000bf
:10364400200798001e0fe8000113800000022000ec
:10365400008060000000e0000b003a00401380008e
:10366400804078003e00900001487800be00900041
:103674004e00900000804000300798001e0090002b
:103684000000e800100798002e0890009e007800c3
:10369400808f5000dfff39001000370001138000d5
:1036a40000022000008060000000e0000b003a00ef
:1036b40040138000804078003e009000014878006c
:1036c400be0090004e00900000804000300798003b
:1036d4001e0090000000e800100798009e00900073
:1036e4002e089000808f5000ecff39001e007800f7
:1036f4000080fa00000006000400fa002047980049
:103704000e80e8008e0078007eff07001e407800df
:103714000080fa00000006000600fa00000f78009e
:1037240011079800220798002e0190009e00900037
:103734001e0078008bff07000080fa0000000600de
:103744000000fa0011138000004020000080600097
:103754000000e00002003a000000eb000100370026
:10376400100020000080fa00000006000000fa00ab
:10377400001380000080fa00000006000000fa0038
:10378400003a80000080fa00000006000200fa00ff
:10379400faff0700000f78001e00780024000700dd
:1037a4000004e0000200320000002800710007005d
:1037b4001e0078002a0007000004e0000200320026
:1037c400000024006b0007001e0078003200070090
:1037d4000004e00002003200002020006500070021
:1037e4001e0078003a0007000004e00002003200e6
:1037f400000820005f0007001e0078004200070058
:103804000004e00002003200000420005900070018
:103814001e0078004a0007000004e00002003200a5
:1038240000012000530007000080fa000000060099
:103834000400fa00100798000040eb00004f7800e5
:103844001e0090000000e00002003d0010c0b30024
:10385400004f78001e4078000080fa000000060047
:103864000400fa00100798000040eb00004f7800b5
:103874009e00900000002400008060000000e00032
:103884000200320010c0b300004f78001e407800e0
:103894000080fa00000006000400fa0010079800f7
:1038a4000040eb00004f78009e00900000202000b4
:1038b400008060000000e0000200320010c0b3008d
:1038c400004f78001e4078000080fa0000000600d7
:1038d4000400fa00100798000040eb00004f780045
:1038e4009e00900000082000008060000000e000be
:1038f4000200320010c0b300004f78001e40780070
:103904000080fa00000006000400fa001007980086
:103914000040eb00004f78009e009000000420005f
:10392400008060000000e0000200320010c0b3001c
:10393400004f78001e4078000080fa000000060066
:103944000400fa00100798000040eb00004f7800d4
:103954001e009000700060000000e00002003200d1
:1039640010c0b300004f78001e4078000080fa00b9
:10397400000006000200fa00000f78009e80ea00b2
:10398400003a800000806000003a88000080fa005d
:10399400000006000000fa004027ef000080fa0053
:1039a400000006000000fa0000022200005888000f
:1039b4006004200010588800062bef00000021004e
:1039c400205888000a2bef00082bef000c2bef0087
:1039d40070002000705888000088a90000022000b0
:1039e400805888002002200090588800162bef0091
:1039f40000002100a05888001a2bef00182bef00bc
:103a04001c2bef0070002000f058880001c8a900aa
:103a1400202bef00222bef00262bef0000002100cb
:103a2400205988002a2bef00282bef002c2bef00c5
:103a34002e2bef000308a900302bef00322bef00f0
:103a4400362bef0000002100a05988003a2bef002c
:103a5400382bef003c2bef003e2bef000488a9002d
:103a64000080fa00000006000000fa000080fa005e
:103a7400000006000000fa000040800070006000b2
:103a84000000e00002003200f7ff07000088a900f0
:103a94000080fa00000006000000fa000080fa002e
:103aa400000006000000fa0001408000000024002d
:103ab400008060000000e00002003200f6ff070012
:103ac40001c8a9000080fa00000006000000fa0006
:103ad4000080fa00000006000000fa001140800097
:103ae40000102000008060000000e00002003200ae
:103af400f6ff07000308a9000080fa000000060092
:103b04000000fa000080fa00000006000000fa003d
:103b140020408000700060000000e00002003200dd
:103b2400f7ff07000488a9000080fa0000000600df
:103b34000000fa00042eef0000102000c07088007e
:103b44007001200000708800f06f2300a0708800ce
:103b54000c2eef00202eef000a2eef001e2eef0099
:103b6400062eef001a2eef0030012000707088003e
:103b74003000200010718800113a8000f00b200002
:103b8400008160006004200071052000237420007f
:103b9400804978008149780082497800c1338000e7
:103ba400f00f2c008080600000e020000100700015
:103bb400c0338800a1338000f00f2c0080806000a7
:103bc4000090200001007000a033880090c2b30070
:103bd400cce6b70070c2b300cde6b700c0c2b300f4
:103be400d4e6b700b133800000fc2f0000806000f1
:103bf400a000b300b0338800103a800000017800c0
:103c04000260a000600420007105200023742000dd
:103c14008049780081497800824978000080fa0060
:103c2400000006000000fa0064f907000080fa00b2
:103c3400000006000000fa00e1f907000080fa0025
:103c4400000006000000fa00eaf907000080fa000c
:103c5400000006000400fa00000f78001107980025
:103c64001e009000800078001e007800eef9070026
:103c74000080fa00000006000200fa00000f78003d
:103c84001e0078001efa07000080fa0000000600fb
:103c94000000fa004efa07000080fa000000060057
:103ca4000000fa0056fa07000080fa00000006003f
:103cb4000000fa005efa07000080fa000000060027
:103cc4000000fa0066fa07000080fa00000006000f
:103cd4000000fa007ffa07000080fa0000000600e6
:103ce4000000fa0000102300203a88004827ef0063
:103cf4004e27ef0000032000303a88006027ef00d1
:103d04006227ef006427ef006627ef006a27ef00c1
:103d14006c27ef006e27ef002200200080072000b0
:103d2400a10920003374200080497800814978007b
:103d3400824978000001eb00600420007105200036
:103d440023742000804978008149780082497800f2
:103d54000080fa00000006000000fa0000002800bd
:103d6400001988002223ef002423ef002823ef000a
:103d74002e23ef003023ef0000102000901988005c
:103d84002623ef00101980004200de007f4060000f
:103d94001af0b7000080fa00000006000000fa00e4
:103da4000080fa00000006000000fa0001408000d4
:103db40000002200008060000000e00002003200e9
:103dc400f6ff070001a8a9000080fa000000060021
:103dd4000200fa00000f780021028000200f20006a
:103de400008060001e007000200288000080fa003d
:103df400000006000000fa00c3e8a800000000006c
:103e0400000000000080fa00000006000000fa0034
:103e140047ff0700b2ff070031000700c2fc07009c
:103e2400affd0700ccff0700e4f80700ddfe070044
:103e3400f0ff070000022000e5ff07000080fa0001
:043e44000000060074
:020000040000fa
:103e480000120000000200008000000018100000ae
:103e580002000000800000001a10000002000000ac
:103e6800800000001e1000002000000080000000fc
:103e78001c1000000200000082000000ffff00008c
:103e88003e1000001200000080000000001000003a
:0c3e980018000000800000000000000086
:020000040000fa
:103ea4000000fa008eff07000080fa000000060000
:103eb4000000fa00003a80000080fa0000000600ca
:103ec4000000fa0031fe07000080fa00000006003e
:103ed4000000fa00affe07000080fa0000000600b0
:103ee4000000fa0041428000f0f82f0000806000da
:103ef4000040a000404288004142800080ff2f0023
:103f0400008060000000a000404288000080fa00a9
:103f140000000600000f78009e007800e180880011
:103f2400ffff37000000fa00e0012100800778005d
:103f340060032100000188000080fa0000000600f0
:020000040000fa
:020000040005f5
:04570000ffff0000a7
:020000040000fa
:020000040005f5
:04572000ffff000087
:020000040000fa
:020000040005f5
:045730007aff0000fc
:020000040000fa
:020000040005f5
:04573800baff0000b4
:020000040000fa
:020000040005f5
:045740009fff0000c7
:020000040000fa
:020000040005f5
:04574800ffff00005f
:020000040000fa
:020000040005f5
:04575000ffff000057
:020000040000fa
:020000040005f5
:04575800000000004d
:020000040000fa
:020000040005f5
:045760000000000045
:020000040000fa
:020000040005f5
:04576800000000003d
:020000040000fa
:020000040005f5
:045770000000000035
:020000040000fa
:020000040005f5
:04577800feff000030
:020000040000fa
:020000040005f5
:04578000ffff000027
:020000040000fa
:020000040005f5
:04578800ffff00001f
:00000001FF
